{"contracts/SimpleVoting.sol":{"SimpleVoting":{"abi":[{"inputs":[{"internalType":"uint256","name":"_startAfter","type":"uint256"},{"internalType":"uint256","name":"_durationInSeconds","type":"uint256"}],"stateMutability":"nonpayable","type":"constructor"},{"inputs":[{"internalType":"address","name":"owner","type":"address"}],"name":"OwnableInvalidOwner","type":"error"},{"inputs":[{"internalType":"address","name":"account","type":"address"}],"name":"OwnableUnauthorizedAccount","type":"error"},{"anonymous":false,"inputs":[{"indexed":true,"internalType":"address","name":"previousOwner","type":"address"},{"indexed":true,"internalType":"address","name":"newOwner","type":"address"}],"name":"OwnershipTransferred","type":"event"},{"anonymous":false,"inputs":[{"indexed":false,"internalType":"uint256","name":"yesVotes","type":"uint256"},{"indexed":false,"internalType":"uint256","name":"noVotes","type":"uint256"}],"name":"VoteReset","type":"event"},{"inputs":[{"internalType":"address","name":"_user","type":"address"}],"name":"checkHasVoted","outputs":[{"internalType":"bool","name":"","type":"bool"}],"stateMutability":"view","type":"function"},{"inputs":[],"name":"endTime","outputs":[{"internalType":"uint256","name":"","type":"uint256"}],"stateMutability":"view","type":"function"},{"inputs":[],"name":"endVoteManually","outputs":[],"stateMutability":"nonpayable","type":"function"},{"inputs":[],"name":"getMyVote","outputs":[{"internalType":"bool","name":"_userVote","type":"bool"}],"stateMutability":"view","type":"function"},{"inputs":[],"name":"getNoCount","outputs":[{"internalType":"uint256","name":"","type":"uint256"}],"stateMutability":"view","type":"function"},{"inputs":[],"name":"getParticipationRate","outputs":[{"internalType":"uint256","name":"_yesRate","type":"uint256"},{"internalType":"uint256","name":"_noRate","type":"uint256"}],"stateMutability":"view","type":"function"},{"inputs":[],"name":"getVoteCount","outputs":[{"internalType":"uint256","name":"","type":"uint256"}],"stateMutability":"view","type":"function"},{"inputs":[],"name":"getWinner","outputs":[{"internalType":"string","name":"","type":"string"}],"stateMutability":"view","type":"function"},{"inputs":[],"name":"getYesCount","outputs":[{"internalType":"uint256","name":"","type":"uint256"}],"stateMutability":"view","type":"function"},{"inputs":[],"name":"owner","outputs":[{"internalType":"address","name":"","type":"address"}],"stateMutability":"view","type":"function"},{"inputs":[],"name":"renounceOwnership","outputs":[],"stateMutability":"nonpayable","type":"function"},{"inputs":[{"internalType":"uint256","name":"_startAfter","type":"uint256"},{"internalType":"uint256","name":"_durationInSeconds","type":"uint256"}],"name":"resetVote","outputs":[],"stateMutability":"nonpayable","type":"function"},{"inputs":[],"name":"startTime","outputs":[{"internalType":"uint256","name":"","type":"uint256"}],"stateMutability":"view","type":"function"},{"inputs":[{"internalType":"address","name":"newOwner","type":"address"}],"name":"transferOwnership","outputs":[],"stateMutability":"nonpayable","type":"function"},{"inputs":[{"internalType":"bool","name":"_myVote","type":"bool"}],"name":"vote","outputs":[],"stateMutability":"nonpayable","type":"function"}],"evm":{"bytecode":{"linkReferences":{},"object":"608060405234801561001057600080fd5b5060405161212b38038061212b833981810160405281019061003291906102dd565b33600073ffffffffffffffffffffffffffffffffffffffff168173ffffffffffffffffffffffffffffffffffffffff16036100a55760006040517f1e4fbdf700000000000000000000000000000000000000000000000000000000815260040161009c919061035e565b60405180910390fd5b6100b4816101db60201b60201c565b506100cf679595fc169530954860c01b61029f60201b60201c565b6100e96734c5690329530b0f60c01b61029f60201b60201c565b610103674695ff0a9ec49ceb60c01b61029f60201b60201c565b61011d670923051222a1527060c01b61029f60201b60201c565b60008111610160576040517f08c379a0000000000000000000000000000000000000000000000000000000008152600401610157906103d6565b60405180910390fd5b61017a679d597b38fc940a8060c01b61029f60201b60201c565b610194678cbd5f267449fed160c01b61029f60201b60201c565b81426101a09190610425565b6003819055506101c0674b223fff6950973260c01b61029f60201b60201c565b806003546101ce9190610425565b6004819055505050610459565b60008060009054906101000a900473ffffffffffffffffffffffffffffffffffffffff169050816000806101000a81548173ffffffffffffffffffffffffffffffffffffffff021916908373ffffffffffffffffffffffffffffffffffffffff1602179055508173ffffffffffffffffffffffffffffffffffffffff168173ffffffffffffffffffffffffffffffffffffffff167f8be0079c531659141344cd1fd0a4f28419497f9722a3daafe3b4186f6b6457e060405160405180910390a35050565b50565b600080fd5b6000819050919050565b6102ba816102a7565b81146102c557600080fd5b50565b6000815190506102d7816102b1565b92915050565b600080604083850312156102f4576102f36102a2565b5b6000610302858286016102c8565b9250506020610313858286016102c8565b9150509250929050565b600073ffffffffffffffffffffffffffffffffffffffff82169050919050565b60006103488261031d565b9050919050565b6103588161033d565b82525050565b6000602082019050610373600083018461034f565b92915050565b600082825260208201905092915050565b7f4475726174696f6e206d75737420626520706f73697469766500000000000000600082015250565b60006103c0601983610379565b91506103cb8261038a565b602082019050919050565b600060208201905081810360008301526103ef816103b3565b9050919050565b7f4e487b7100000000000000000000000000000000000000000000000000000000600052601160045260246000fd5b6000610430826102a7565b915061043b836102a7565b9250828201905080821115610453576104526103f6565b5b92915050565b611cc3806104686000396000f3fe608060405234801561001057600080fd5b50600436106100f55760003560e01c80638cb647d311610097578063dbfb1f8a11610066578063dbfb1f8a14610219578063e35f8cef14610237578063e7b3387c14610267578063f2fde38b14610285576100f5565b80638cb647d3146101b55780638da5cb5b146101d35780638e7ea5b2146101f1578063c0bc82981461020f576100f5565b806370a5525c116100d357806370a5525c14610152578063715018a61461016e57806374a10b2c1461017857806378e9792514610197576100f5565b80633197cbb6146100fa5780633722b0de146101185780634b9f5c9814610136575b600080fd5b6101026102a1565b60405161010f91906115de565b60405180910390f35b6101206102a7565b60405161012d91906115de565b60405180910390f35b610150600480360381019061014b9190611636565b6102ed565b005b61016c6004803603810190610167919061168f565b610748565b005b610176610b8d565b005b610180610ba1565b60405161018e9291906116cf565b60405180910390f35b61019f610db7565b6040516101ac91906115de565b60405180910390f35b6101bd610dbd565b6040516101ca9190611707565b60405180910390f35b6101db610f29565b6040516101e89190611763565b60405180910390f35b6101f9610f52565b604051610206919061180e565b60405180910390f35b61021761121f565b005b610221611280565b60405161022e91906115de565b60405180910390f35b610251600480360381019061024c919061185c565b6112c6565b60405161025e9190611707565b60405180910390f35b61026f611358565b60405161027c91906115de565b60405180910390f35b61029f600480360381019061029a919061185c565b6113ab565b005b60045481565b60006102bd67414f355e09a70d6060c01b611431565b6102d167f7f5eee7efc0579760c01b611431565b6102e567debaa7a07e4a284260c01b611431565b600254905090565b61030167160993cef56511fa60c01b611431565b610315679c9cb7cad483bb3460c01b611431565b61032967f26d76336c47e63560c01b611431565b61033d6723f83e25aee29fcc60c01b611431565b610351676f9de23ec3a61e2f60c01b611431565b600354421015610396576040517f08c379a000000000000000000000000000000000000000000000000000000000815260040161038d906118d5565b60405180910390fd5b6103aa67648b8071b52da7f460c01b611431565b6103be6736a37cc8c41ae94760c01b611431565b6103d2673a7cb6d31c9e85a360c01b611431565b6103e6671f48b053175492ea60c01b611431565b600454421061042a576040517f08c379a000000000000000000000000000000000000000000000000000000000815260040161042190611941565b60405180910390fd5b61043e675988e45f9e1c020460c01b611431565b61045267333a1508210919a260c01b611431565b6104666793921d846597e66a60c01b611431565b61047a677264d66921fb9f1860c01b611431565b61048e67fd29e3793b86c61360c01b611431565b6104a267ea36e5e6c1c9bb3860c01b611431565b6104b667920f54a1b13c55ae60c01b611431565b600560003373ffffffffffffffffffffffffffffffffffffffff1673ffffffffffffffffffffffffffffffffffffffff16815260200190815260200160002060009054906101000a900460ff1615610543576040517f08c379a000000000000000000000000000000000000000000000000000000000815260040161053a906119ad565b60405180910390fd5b610557676f1be982047a771260c01b611431565b61056b67fc10839c8e42610160c01b611431565b61057f673564019f5cd535be60c01b611431565b6007339080600181540180825580915050600190039060005260206000200160009091909190916101000a81548173ffffffffffffffffffffffffffffffffffffffff021916908373ffffffffffffffffffffffffffffffffffffffff1602179055506105f6673f1875bc750bc3d360c01b611431565b61060a67d7a375108a702a3b60c01b611431565b801561064157610624679ab437255b6272f260c01b611431565b60016000815480929190610637906119fc565b919050555061066e565b610655671f26f19004ce0aee60c01b611431565b60026000815480929190610668906119fc565b91905055505b61068267847d752531a012d460c01b611431565b80600660003373ffffffffffffffffffffffffffffffffffffffff1673ffffffffffffffffffffffffffffffffffffffff16815260200190815260200160002060006101000a81548160ff0219169083151502179055506106ed675a56c021da52049f60c01b611431565b6001600560003373ffffffffffffffffffffffffffffffffffffffff1673ffffffffffffffffffffffffffffffffffffffff16815260200190815260200160002060006101000a81548160ff02191690831515021790555050565b61075c673499921a099884bf60c01b611431565b610764611434565b61077867e640d0a1cd77a82660c01b611431565b61078c677fdebbb899a757e760c01b611431565b6107a067e0eb9c46ce5126f760c01b611431565b6107b467f4e5c5cba92fbefe60c01b611431565b6107c8671f312c3ad014ac1260c01b611431565b6107dc67abc817afa7e318c060c01b611431565b600454421015610821576040517f08c379a000000000000000000000000000000000000000000000000000000000815260040161081890611a90565b60405180910390fd5b610835677a227a03f8c5c0a660c01b611431565b61084967a1283306be5cfb9760c01b611431565b61085d677c502b50688e2d1d60c01b611431565b610871675c90a9d6488bc2b860c01b611431565b6108856751001db66fd5e74660c01b611431565b610899677d8743391a4dc8ad60c01b611431565b6108ad6787038717af27918760c01b611431565b600081116108f0576040517f08c379a00000000000000000000000000000000000000000000000000000000081526004016108e790611afc565b60405180910390fd5b61090467081e416ba2e2f1e860c01b611431565b61091867a8b56fdcfc39d56360c01b611431565b61092c67517077a360d87ba160c01b611431565b7f17a4a0eae8546ebf70d6a049c5eea6dfd8104b52bfc612b7bf6277c2e49847656001546002546040516109619291906116cf565b60405180910390a161097d67a2ea63ba0c39f0e860c01b611431565b600060018190555061099967bbacc90c8f25beba60c01b611431565b60006002819055506109b567359f57f98695a7e560c01b611431565b6109c967654fb92eae00181d60c01b611431565b60005b600780549050811015610b18576109ed676ba20d00e814c36960c01b611431565b610a0167a07726c7d516c60d60c01b611431565b600060078281548110610a1757610a16611b1c565b5b9060005260206000200160009054906101000a900473ffffffffffffffffffffffffffffffffffffffff169050610a58673b24c272f4c3757c60c01b611431565b600560008273ffffffffffffffffffffffffffffffffffffffff1673ffffffffffffffffffffffffffffffffffffffff16815260200190815260200160002060006101000a81549060ff0219169055610abb673615146dfc5999f660c01b611431565b600660008273ffffffffffffffffffffffffffffffffffffffff1673ffffffffffffffffffffffffffffffffffffffff16815260200190815260200160002060006101000a81549060ff02191690555080806001019150506109cc565b50610b2d6782884bb18fe7ea0460c01b611431565b60076000610b3b9190611587565b610b4f677995e07dee9dcabc60c01b611431565b8142610b5b9190611b4b565b600381905550610b7567e6ab76e5b4fb8c5460c01b611431565b80600354610b839190611b4b565b6004819055505050565b610b95611434565b610b9f60006114bb565b565b600080610bb867c29fe2d5b3e9e59360c01b611431565b610bcc67e0eb9c46ce5126f760c01b611431565b610be067f4e5c5cba92fbefe60c01b611431565b610bf4671f312c3ad014ac1260c01b611431565b610c0867abc817afa7e318c060c01b611431565b600454421015610c4d576040517f08c379a0000000000000000000000000000000000000000000000000000000008152600401610c4490611a90565b60405180910390fd5b610c61677a227a03f8c5c0a660c01b611431565b610c7567a1283306be5cfb9760c01b611431565b610c8967112aa79747020fbc60c01b611431565b610c9d67466e44bd68d48e6f60c01b611431565b610cb167a5818b9e9bde81d660c01b611431565b610cc5671d2bc0e5d375f83e60c01b611431565b6000600254600154610cd79190611b4b565b9050610ced678415f5a9d2cc2a7a60c01b611431565b806064600154610cfd9190611b7f565b610d079190611bf0565b9250610d1d67fd30a0861c6b5f8360c01b611431565b806064600254610d2d9190611b7f565b610d379190611bf0565b9150610d4d6790d47fbe5d4ee92860c01b611431565b610d6167d27416bc9bda689860c01b611431565b60006007805490501115610d9d57610d8367c1f727ee97bc81b760c01b611431565b610d97676243669b645bebb460c01b611431565b50610db3565b610db1676bdcea004b19c55960c01b611431565b505b9091565b60035481565b6000610dd36773e7c96b9d93bff360c01b611431565b610de767505e1133060c8d8560c01b611431565b610dfb67b33423556d18767e60c01b611431565b610e0f67be46b62fba13581b60c01b611431565b600560003373ffffffffffffffffffffffffffffffffffffffff1673ffffffffffffffffffffffffffffffffffffffff16815260200190815260200160002060009054906101000a900460ff16610e9b576040517f08c379a0000000000000000000000000000000000000000000000000000000008152600401610e9290611c6d565b60405180910390fd5b610eaf673a2dfb581d8365a860c01b611431565b610ec367dadb42fba5c156a160c01b611431565b610ed767208b8342667121d060c01b611431565b600660003373ffffffffffffffffffffffffffffffffffffffff1673ffffffffffffffffffffffffffffffffffffffff16815260200190815260200160002060009054906101000a900460ff16905090565b60008060009054906101000a900473ffffffffffffffffffffffffffffffffffffffff16905090565b6060610f6867199c3845d49d891360c01b611431565b610f7c67e0eb9c46ce5126f760c01b611431565b610f9067f4e5c5cba92fbefe60c01b611431565b610fa4671f312c3ad014ac1260c01b611431565b610fb867abc817afa7e318c060c01b611431565b600454421015610ffd576040517f08c379a0000000000000000000000000000000000000000000000000000000008152600401610ff490611a90565b60405180910390fd5b611011677a227a03f8c5c0a660c01b611431565b61102567a1283306be5cfb9760c01b611431565b61103967e224ca763f44403660c01b611431565b61104d678725b2cbf813714e60c01b611431565b61106167581d902e32f2246160c01b611431565b61107567d88e450f4836e75560c01b611431565b60025460015411156110fa57611095677fa8b4d17c81c95860c01b611431565b6110a96734e0631c4395ad7860c01b611431565b6110bd674552e3ad92b5ef8e60c01b611431565b6040518060400160405280601381526020017f59657320766f746573206861766520776f6e2e00000000000000000000000000815250905061121c565b61110e673a1d5c05d83ed0eb60c01b611431565b61112267771ba9dd88f6317160c01b611431565b60015460025411156111a757611142673033e387f50ebc0960c01b611431565b61115667ad3dceb9ddb6883b60c01b611431565b61116a675ce51bfdcdfba37760c01b611431565b6040518060400160405280601281526020017f4e6f20766f746573206861766520776f6e2e0000000000000000000000000000815250905061121c565b6111bb6704a43b3f5b1af54560c01b611431565b6111cf67fc5325a0caf18a4f60c01b611431565b6111e367a728d12db9db54d460c01b611431565b6040518060400160405280601081526020017f566f7465732061726520657175616c2e0000000000000000000000000000000081525090505b90565b61123367ca67a1dec2fb6e3260c01b611431565b61123b611434565b61124f67f54c92aeb219afff60c01b611431565b61126367fd5d631768cc64b660c01b611431565b611277671723525dd880f48960c01b611431565b42600481905550565b600061129667425ba4b60b2fa1fe60c01b611431565b6112aa676188a03ee3a0646560c01b611431565b6112be67c7c05e63236e1eaf60c01b611431565b600154905090565b60006112dc675eec5614bda0325d60c01b611431565b6112f0677193f1416e9ad7a060c01b611431565b611304671a4213dca6e570e860c01b611431565b600560008373ffffffffffffffffffffffffffffffffffffffff1673ffffffffffffffffffffffffffffffffffffffff16815260200190815260200160002060009054906101000a900460ff169050919050565b600061136e674546b90474163b7260c01b611431565b61138267cd8a19c776132ba160c01b611431565b61139667a07ed93bf061fec560c01b611431565b6002546001546113a69190611b4b565b905090565b6113b3611434565b600073ffffffffffffffffffffffffffffffffffffffff168173ffffffffffffffffffffffffffffffffffffffff16036114255760006040517f1e4fbdf700000000000000000000000000000000000000000000000000000000815260040161141c9190611763565b60405180910390fd5b61142e816114bb565b50565b50565b61143c61157f565b73ffffffffffffffffffffffffffffffffffffffff1661145a610f29565b73ffffffffffffffffffffffffffffffffffffffff16146114b95761147d61157f565b6040517f118cdaa70000000000000000000000000000000000000000000000000000000081526004016114b09190611763565b60405180910390fd5b565b60008060009054906101000a900473ffffffffffffffffffffffffffffffffffffffff169050816000806101000a81548173ffffffffffffffffffffffffffffffffffffffff021916908373ffffffffffffffffffffffffffffffffffffffff1602179055508173ffffffffffffffffffffffffffffffffffffffff168173ffffffffffffffffffffffffffffffffffffffff167f8be0079c531659141344cd1fd0a4f28419497f9722a3daafe3b4186f6b6457e060405160405180910390a35050565b600033905090565b50805460008255906000526020600020908101906115a591906115a8565b50565b5b808211156115c15760008160009055506001016115a9565b5090565b6000819050919050565b6115d8816115c5565b82525050565b60006020820190506115f360008301846115cf565b92915050565b600080fd5b60008115159050919050565b611613816115fe565b811461161e57600080fd5b50565b6000813590506116308161160a565b92915050565b60006020828403121561164c5761164b6115f9565b5b600061165a84828501611621565b91505092915050565b61166c816115c5565b811461167757600080fd5b50565b60008135905061168981611663565b92915050565b600080604083850312156116a6576116a56115f9565b5b60006116b48582860161167a565b92505060206116c58582860161167a565b9150509250929050565b60006040820190506116e460008301856115cf565b6116f160208301846115cf565b9392505050565b611701816115fe565b82525050565b600060208201905061171c60008301846116f8565b92915050565b600073ffffffffffffffffffffffffffffffffffffffff82169050919050565b600061174d82611722565b9050919050565b61175d81611742565b82525050565b60006020820190506117786000830184611754565b92915050565b600081519050919050565b600082825260208201905092915050565b60005b838110156117b857808201518184015260208101905061179d565b60008484015250505050565b6000601f19601f8301169050919050565b60006117e08261177e565b6117ea8185611789565b93506117fa81856020860161179a565b611803816117c4565b840191505092915050565b6000602082019050818103600083015261182881846117d5565b905092915050565b61183981611742565b811461184457600080fd5b50565b60008135905061185681611830565b92915050565b600060208284031215611872576118716115f9565b5b600061188084828501611847565b91505092915050565b7f566f74696e67206e6f7420737461727465642e00000000000000000000000000600082015250565b60006118bf601383611789565b91506118ca82611889565b602082019050919050565b600060208201905081810360008301526118ee816118b2565b9050919050565b7f566f74696e6720656e6465642e00000000000000000000000000000000000000600082015250565b600061192b600d83611789565b9150611936826118f5565b602082019050919050565b6000602082019050818103600083015261195a8161191e565b9050919050565b7f416c726561647920766f7465642e000000000000000000000000000000000000600082015250565b6000611997600e83611789565b91506119a282611961565b602082019050919050565b600060208201905081810360008301526119c68161198a565b9050919050565b7f4e487b7100000000000000000000000000000000000000000000000000000000600052601160045260246000fd5b6000611a07826115c5565b91507fffffffffffffffffffffffffffffffffffffffffffffffffffffffffffffffff8203611a3957611a386119cd565b5b600182019050919050565b7f566f74696e67206973206f6e676f696e672e0000000000000000000000000000600082015250565b6000611a7a601283611789565b9150611a8582611a44565b602082019050919050565b60006020820190508181036000830152611aa981611a6d565b9050919050565b7f4475726174696f6e206d75737420626520706f73697469766500000000000000600082015250565b6000611ae6601983611789565b9150611af182611ab0565b602082019050919050565b60006020820190508181036000830152611b1581611ad9565b9050919050565b7f4e487b7100000000000000000000000000000000000000000000000000000000600052603260045260246000fd5b6000611b56826115c5565b9150611b61836115c5565b9250828201905080821115611b7957611b786119cd565b5b92915050565b6000611b8a826115c5565b9150611b95836115c5565b9250828202611ba3816115c5565b91508282048414831517611bba57611bb96119cd565b5b5092915050565b7f4e487b7100000000000000000000000000000000000000000000000000000000600052601260045260246000fd5b6000611bfb826115c5565b9150611c06836115c5565b925082611c1657611c15611bc1565b5b828204905092915050565b7f596f752068617665206e6f7420766f746564207965742e000000000000000000600082015250565b6000611c57601783611789565b9150611c6282611c21565b602082019050919050565b60006020820190508181036000830152611c8681611c4a565b905091905056fea26469706673582212204b1df23a3dddb1225105cab8000f825c24d0410907d437c368b0a262608d109a64736f6c634300081c0033","opcodes":"PUSH1 0x80 PUSH1 0x40 MSTORE CALLVALUE DUP1 ISZERO PUSH2 0x10 JUMPI PUSH1 0x0 DUP1 REVERT JUMPDEST POP PUSH1 0x40 MLOAD PUSH2 0x212B CODESIZE SUB DUP1 PUSH2 0x212B DUP4 CODECOPY DUP2 DUP2 ADD PUSH1 0x40 MSTORE DUP2 ADD SWAP1 PUSH2 0x32 SWAP2 SWAP1 PUSH2 0x2DD JUMP JUMPDEST CALLER PUSH1 0x0 PUSH20 0xFFFFFFFFFFFFFFFFFFFFFFFFFFFFFFFFFFFFFFFF AND DUP2 PUSH20 0xFFFFFFFFFFFFFFFFFFFFFFFFFFFFFFFFFFFFFFFF AND SUB PUSH2 0xA5 JUMPI PUSH1 0x0 PUSH1 0x40 MLOAD PUSH32 0x1E4FBDF700000000000000000000000000000000000000000000000000000000 DUP2 MSTORE PUSH1 0x4 ADD PUSH2 0x9C SWAP2 SWAP1 PUSH2 0x35E JUMP JUMPDEST PUSH1 0x40 MLOAD DUP1 SWAP2 SUB SWAP1 REVERT JUMPDEST PUSH2 0xB4 DUP2 PUSH2 0x1DB PUSH1 0x20 SHL PUSH1 0x20 SHR JUMP JUMPDEST POP PUSH2 0xCF PUSH8 0x9595FC1695309548 PUSH1 0xC0 SHL PUSH2 0x29F PUSH1 0x20 SHL PUSH1 0x20 SHR JUMP JUMPDEST PUSH2 0xE9 PUSH8 0x34C5690329530B0F PUSH1 0xC0 SHL PUSH2 0x29F PUSH1 0x20 SHL PUSH1 0x20 SHR JUMP JUMPDEST PUSH2 0x103 PUSH8 0x4695FF0A9EC49CEB PUSH1 0xC0 SHL PUSH2 0x29F PUSH1 0x20 SHL PUSH1 0x20 SHR JUMP JUMPDEST PUSH2 0x11D PUSH8 0x923051222A15270 PUSH1 0xC0 SHL PUSH2 0x29F PUSH1 0x20 SHL PUSH1 0x20 SHR JUMP JUMPDEST PUSH1 0x0 DUP2 GT PUSH2 0x160 JUMPI PUSH1 0x40 MLOAD PUSH32 0x8C379A000000000000000000000000000000000000000000000000000000000 DUP2 MSTORE PUSH1 0x4 ADD PUSH2 0x157 SWAP1 PUSH2 0x3D6 JUMP JUMPDEST PUSH1 0x40 MLOAD DUP1 SWAP2 SUB SWAP1 REVERT JUMPDEST PUSH2 0x17A PUSH8 0x9D597B38FC940A80 PUSH1 0xC0 SHL PUSH2 0x29F PUSH1 0x20 SHL PUSH1 0x20 SHR JUMP JUMPDEST PUSH2 0x194 PUSH8 0x8CBD5F267449FED1 PUSH1 0xC0 SHL PUSH2 0x29F PUSH1 0x20 SHL PUSH1 0x20 SHR JUMP JUMPDEST DUP2 TIMESTAMP PUSH2 0x1A0 SWAP2 SWAP1 PUSH2 0x425 JUMP JUMPDEST PUSH1 0x3 DUP2 SWAP1 SSTORE POP PUSH2 0x1C0 PUSH8 0x4B223FFF69509732 PUSH1 0xC0 SHL PUSH2 0x29F PUSH1 0x20 SHL PUSH1 0x20 SHR JUMP JUMPDEST DUP1 PUSH1 0x3 SLOAD PUSH2 0x1CE SWAP2 SWAP1 PUSH2 0x425 JUMP JUMPDEST PUSH1 0x4 DUP2 SWAP1 SSTORE POP POP POP PUSH2 0x459 JUMP JUMPDEST PUSH1 0x0 DUP1 PUSH1 0x0 SWAP1 SLOAD SWAP1 PUSH2 0x100 EXP SWAP1 DIV PUSH20 0xFFFFFFFFFFFFFFFFFFFFFFFFFFFFFFFFFFFFFFFF AND SWAP1 POP DUP2 PUSH1 0x0 DUP1 PUSH2 0x100 EXP DUP2 SLOAD DUP2 PUSH20 0xFFFFFFFFFFFFFFFFFFFFFFFFFFFFFFFFFFFFFFFF MUL NOT AND SWAP1 DUP4 PUSH20 0xFFFFFFFFFFFFFFFFFFFFFFFFFFFFFFFFFFFFFFFF AND MUL OR SWAP1 SSTORE POP DUP2 PUSH20 0xFFFFFFFFFFFFFFFFFFFFFFFFFFFFFFFFFFFFFFFF AND DUP2 PUSH20 0xFFFFFFFFFFFFFFFFFFFFFFFFFFFFFFFFFFFFFFFF AND PUSH32 0x8BE0079C531659141344CD1FD0A4F28419497F9722A3DAAFE3B4186F6B6457E0 PUSH1 0x40 MLOAD PUSH1 0x40 MLOAD DUP1 SWAP2 SUB SWAP1 LOG3 POP POP JUMP JUMPDEST POP JUMP JUMPDEST PUSH1 0x0 DUP1 REVERT JUMPDEST PUSH1 0x0 DUP2 SWAP1 POP SWAP2 SWAP1 POP JUMP JUMPDEST PUSH2 0x2BA DUP2 PUSH2 0x2A7 JUMP JUMPDEST DUP2 EQ PUSH2 0x2C5 JUMPI PUSH1 0x0 DUP1 REVERT JUMPDEST POP JUMP JUMPDEST PUSH1 0x0 DUP2 MLOAD SWAP1 POP PUSH2 0x2D7 DUP2 PUSH2 0x2B1 JUMP JUMPDEST SWAP3 SWAP2 POP POP JUMP JUMPDEST PUSH1 0x0 DUP1 PUSH1 0x40 DUP4 DUP6 SUB SLT ISZERO PUSH2 0x2F4 JUMPI PUSH2 0x2F3 PUSH2 0x2A2 JUMP JUMPDEST JUMPDEST PUSH1 0x0 PUSH2 0x302 DUP6 DUP3 DUP7 ADD PUSH2 0x2C8 JUMP JUMPDEST SWAP3 POP POP PUSH1 0x20 PUSH2 0x313 DUP6 DUP3 DUP7 ADD PUSH2 0x2C8 JUMP JUMPDEST SWAP2 POP POP SWAP3 POP SWAP3 SWAP1 POP JUMP JUMPDEST PUSH1 0x0 PUSH20 0xFFFFFFFFFFFFFFFFFFFFFFFFFFFFFFFFFFFFFFFF DUP3 AND SWAP1 POP SWAP2 SWAP1 POP JUMP JUMPDEST PUSH1 0x0 PUSH2 0x348 DUP3 PUSH2 0x31D JUMP JUMPDEST SWAP1 POP SWAP2 SWAP1 POP JUMP JUMPDEST PUSH2 0x358 DUP2 PUSH2 0x33D JUMP JUMPDEST DUP3 MSTORE POP POP JUMP JUMPDEST PUSH1 0x0 PUSH1 0x20 DUP3 ADD SWAP1 POP PUSH2 0x373 PUSH1 0x0 DUP4 ADD DUP5 PUSH2 0x34F JUMP JUMPDEST SWAP3 SWAP2 POP POP JUMP JUMPDEST PUSH1 0x0 DUP3 DUP3 MSTORE PUSH1 0x20 DUP3 ADD SWAP1 POP SWAP3 SWAP2 POP POP JUMP JUMPDEST PUSH32 0x4475726174696F6E206D75737420626520706F73697469766500000000000000 PUSH1 0x0 DUP3 ADD MSTORE POP JUMP JUMPDEST PUSH1 0x0 PUSH2 0x3C0 PUSH1 0x19 DUP4 PUSH2 0x379 JUMP JUMPDEST SWAP2 POP PUSH2 0x3CB DUP3 PUSH2 0x38A JUMP JUMPDEST PUSH1 0x20 DUP3 ADD SWAP1 POP SWAP2 SWAP1 POP JUMP JUMPDEST PUSH1 0x0 PUSH1 0x20 DUP3 ADD SWAP1 POP DUP2 DUP2 SUB PUSH1 0x0 DUP4 ADD MSTORE PUSH2 0x3EF DUP2 PUSH2 0x3B3 JUMP JUMPDEST SWAP1 POP SWAP2 SWAP1 POP JUMP JUMPDEST PUSH32 0x4E487B7100000000000000000000000000000000000000000000000000000000 PUSH1 0x0 MSTORE PUSH1 0x11 PUSH1 0x4 MSTORE PUSH1 0x24 PUSH1 0x0 REVERT JUMPDEST PUSH1 0x0 PUSH2 0x430 DUP3 PUSH2 0x2A7 JUMP JUMPDEST SWAP2 POP PUSH2 0x43B DUP4 PUSH2 0x2A7 JUMP JUMPDEST SWAP3 POP DUP3 DUP3 ADD SWAP1 POP DUP1 DUP3 GT ISZERO PUSH2 0x453 JUMPI PUSH2 0x452 PUSH2 0x3F6 JUMP JUMPDEST JUMPDEST SWAP3 SWAP2 POP POP JUMP JUMPDEST PUSH2 0x1CC3 DUP1 PUSH2 0x468 PUSH1 0x0 CODECOPY PUSH1 0x0 RETURN INVALID PUSH1 0x80 PUSH1 0x40 MSTORE CALLVALUE DUP1 ISZERO PUSH2 0x10 JUMPI PUSH1 0x0 DUP1 REVERT JUMPDEST POP PUSH1 0x4 CALLDATASIZE LT PUSH2 0xF5 JUMPI PUSH1 0x0 CALLDATALOAD PUSH1 0xE0 SHR DUP1 PUSH4 0x8CB647D3 GT PUSH2 0x97 JUMPI DUP1 PUSH4 0xDBFB1F8A GT PUSH2 0x66 JUMPI DUP1 PUSH4 0xDBFB1F8A EQ PUSH2 0x219 JUMPI DUP1 PUSH4 0xE35F8CEF EQ PUSH2 0x237 JUMPI DUP1 PUSH4 0xE7B3387C EQ PUSH2 0x267 JUMPI DUP1 PUSH4 0xF2FDE38B EQ PUSH2 0x285 JUMPI PUSH2 0xF5 JUMP JUMPDEST DUP1 PUSH4 0x8CB647D3 EQ PUSH2 0x1B5 JUMPI DUP1 PUSH4 0x8DA5CB5B EQ PUSH2 0x1D3 JUMPI DUP1 PUSH4 0x8E7EA5B2 EQ PUSH2 0x1F1 JUMPI DUP1 PUSH4 0xC0BC8298 EQ PUSH2 0x20F JUMPI PUSH2 0xF5 JUMP JUMPDEST DUP1 PUSH4 0x70A5525C GT PUSH2 0xD3 JUMPI DUP1 PUSH4 0x70A5525C EQ PUSH2 0x152 JUMPI DUP1 PUSH4 0x715018A6 EQ PUSH2 0x16E JUMPI DUP1 PUSH4 0x74A10B2C EQ PUSH2 0x178 JUMPI DUP1 PUSH4 0x78E97925 EQ PUSH2 0x197 JUMPI PUSH2 0xF5 JUMP JUMPDEST DUP1 PUSH4 0x3197CBB6 EQ PUSH2 0xFA JUMPI DUP1 PUSH4 0x3722B0DE EQ PUSH2 0x118 JUMPI DUP1 PUSH4 0x4B9F5C98 EQ PUSH2 0x136 JUMPI JUMPDEST PUSH1 0x0 DUP1 REVERT JUMPDEST PUSH2 0x102 PUSH2 0x2A1 JUMP JUMPDEST PUSH1 0x40 MLOAD PUSH2 0x10F SWAP2 SWAP1 PUSH2 0x15DE JUMP JUMPDEST PUSH1 0x40 MLOAD DUP1 SWAP2 SUB SWAP1 RETURN JUMPDEST PUSH2 0x120 PUSH2 0x2A7 JUMP JUMPDEST PUSH1 0x40 MLOAD PUSH2 0x12D SWAP2 SWAP1 PUSH2 0x15DE JUMP JUMPDEST PUSH1 0x40 MLOAD DUP1 SWAP2 SUB SWAP1 RETURN JUMPDEST PUSH2 0x150 PUSH1 0x4 DUP1 CALLDATASIZE SUB DUP2 ADD SWAP1 PUSH2 0x14B SWAP2 SWAP1 PUSH2 0x1636 JUMP JUMPDEST PUSH2 0x2ED JUMP JUMPDEST STOP JUMPDEST PUSH2 0x16C PUSH1 0x4 DUP1 CALLDATASIZE SUB DUP2 ADD SWAP1 PUSH2 0x167 SWAP2 SWAP1 PUSH2 0x168F JUMP JUMPDEST PUSH2 0x748 JUMP JUMPDEST STOP JUMPDEST PUSH2 0x176 PUSH2 0xB8D JUMP JUMPDEST STOP JUMPDEST PUSH2 0x180 PUSH2 0xBA1 JUMP JUMPDEST PUSH1 0x40 MLOAD PUSH2 0x18E SWAP3 SWAP2 SWAP1 PUSH2 0x16CF JUMP JUMPDEST PUSH1 0x40 MLOAD DUP1 SWAP2 SUB SWAP1 RETURN JUMPDEST PUSH2 0x19F PUSH2 0xDB7 JUMP JUMPDEST PUSH1 0x40 MLOAD PUSH2 0x1AC SWAP2 SWAP1 PUSH2 0x15DE JUMP JUMPDEST PUSH1 0x40 MLOAD DUP1 SWAP2 SUB SWAP1 RETURN JUMPDEST PUSH2 0x1BD PUSH2 0xDBD JUMP JUMPDEST PUSH1 0x40 MLOAD PUSH2 0x1CA SWAP2 SWAP1 PUSH2 0x1707 JUMP JUMPDEST PUSH1 0x40 MLOAD DUP1 SWAP2 SUB SWAP1 RETURN JUMPDEST PUSH2 0x1DB PUSH2 0xF29 JUMP JUMPDEST PUSH1 0x40 MLOAD PUSH2 0x1E8 SWAP2 SWAP1 PUSH2 0x1763 JUMP JUMPDEST PUSH1 0x40 MLOAD DUP1 SWAP2 SUB SWAP1 RETURN JUMPDEST PUSH2 0x1F9 PUSH2 0xF52 JUMP JUMPDEST PUSH1 0x40 MLOAD PUSH2 0x206 SWAP2 SWAP1 PUSH2 0x180E JUMP JUMPDEST PUSH1 0x40 MLOAD DUP1 SWAP2 SUB SWAP1 RETURN JUMPDEST PUSH2 0x217 PUSH2 0x121F JUMP JUMPDEST STOP JUMPDEST PUSH2 0x221 PUSH2 0x1280 JUMP JUMPDEST PUSH1 0x40 MLOAD PUSH2 0x22E SWAP2 SWAP1 PUSH2 0x15DE JUMP JUMPDEST PUSH1 0x40 MLOAD DUP1 SWAP2 SUB SWAP1 RETURN JUMPDEST PUSH2 0x251 PUSH1 0x4 DUP1 CALLDATASIZE SUB DUP2 ADD SWAP1 PUSH2 0x24C SWAP2 SWAP1 PUSH2 0x185C JUMP JUMPDEST PUSH2 0x12C6 JUMP JUMPDEST PUSH1 0x40 MLOAD PUSH2 0x25E SWAP2 SWAP1 PUSH2 0x1707 JUMP JUMPDEST PUSH1 0x40 MLOAD DUP1 SWAP2 SUB SWAP1 RETURN JUMPDEST PUSH2 0x26F PUSH2 0x1358 JUMP JUMPDEST PUSH1 0x40 MLOAD PUSH2 0x27C SWAP2 SWAP1 PUSH2 0x15DE JUMP JUMPDEST PUSH1 0x40 MLOAD DUP1 SWAP2 SUB SWAP1 RETURN JUMPDEST PUSH2 0x29F PUSH1 0x4 DUP1 CALLDATASIZE SUB DUP2 ADD SWAP1 PUSH2 0x29A SWAP2 SWAP1 PUSH2 0x185C JUMP JUMPDEST PUSH2 0x13AB JUMP JUMPDEST STOP JUMPDEST PUSH1 0x4 SLOAD DUP2 JUMP JUMPDEST PUSH1 0x0 PUSH2 0x2BD PUSH8 0x414F355E09A70D60 PUSH1 0xC0 SHL PUSH2 0x1431 JUMP JUMPDEST PUSH2 0x2D1 PUSH8 0xF7F5EEE7EFC05797 PUSH1 0xC0 SHL PUSH2 0x1431 JUMP JUMPDEST PUSH2 0x2E5 PUSH8 0xDEBAA7A07E4A2842 PUSH1 0xC0 SHL PUSH2 0x1431 JUMP JUMPDEST PUSH1 0x2 SLOAD SWAP1 POP SWAP1 JUMP JUMPDEST PUSH2 0x301 PUSH8 0x160993CEF56511FA PUSH1 0xC0 SHL PUSH2 0x1431 JUMP JUMPDEST PUSH2 0x315 PUSH8 0x9C9CB7CAD483BB34 PUSH1 0xC0 SHL PUSH2 0x1431 JUMP JUMPDEST PUSH2 0x329 PUSH8 0xF26D76336C47E635 PUSH1 0xC0 SHL PUSH2 0x1431 JUMP JUMPDEST PUSH2 0x33D PUSH8 0x23F83E25AEE29FCC PUSH1 0xC0 SHL PUSH2 0x1431 JUMP JUMPDEST PUSH2 0x351 PUSH8 0x6F9DE23EC3A61E2F PUSH1 0xC0 SHL PUSH2 0x1431 JUMP JUMPDEST PUSH1 0x3 SLOAD TIMESTAMP LT ISZERO PUSH2 0x396 JUMPI PUSH1 0x40 MLOAD PUSH32 0x8C379A000000000000000000000000000000000000000000000000000000000 DUP2 MSTORE PUSH1 0x4 ADD PUSH2 0x38D SWAP1 PUSH2 0x18D5 JUMP JUMPDEST PUSH1 0x40 MLOAD DUP1 SWAP2 SUB SWAP1 REVERT JUMPDEST PUSH2 0x3AA PUSH8 0x648B8071B52DA7F4 PUSH1 0xC0 SHL PUSH2 0x1431 JUMP JUMPDEST PUSH2 0x3BE PUSH8 0x36A37CC8C41AE947 PUSH1 0xC0 SHL PUSH2 0x1431 JUMP JUMPDEST PUSH2 0x3D2 PUSH8 0x3A7CB6D31C9E85A3 PUSH1 0xC0 SHL PUSH2 0x1431 JUMP JUMPDEST PUSH2 0x3E6 PUSH8 0x1F48B053175492EA PUSH1 0xC0 SHL PUSH2 0x1431 JUMP JUMPDEST PUSH1 0x4 SLOAD TIMESTAMP LT PUSH2 0x42A JUMPI PUSH1 0x40 MLOAD PUSH32 0x8C379A000000000000000000000000000000000000000000000000000000000 DUP2 MSTORE PUSH1 0x4 ADD PUSH2 0x421 SWAP1 PUSH2 0x1941 JUMP JUMPDEST PUSH1 0x40 MLOAD DUP1 SWAP2 SUB SWAP1 REVERT JUMPDEST PUSH2 0x43E PUSH8 0x5988E45F9E1C0204 PUSH1 0xC0 SHL PUSH2 0x1431 JUMP JUMPDEST PUSH2 0x452 PUSH8 0x333A1508210919A2 PUSH1 0xC0 SHL PUSH2 0x1431 JUMP JUMPDEST PUSH2 0x466 PUSH8 0x93921D846597E66A PUSH1 0xC0 SHL PUSH2 0x1431 JUMP JUMPDEST PUSH2 0x47A PUSH8 0x7264D66921FB9F18 PUSH1 0xC0 SHL PUSH2 0x1431 JUMP JUMPDEST PUSH2 0x48E PUSH8 0xFD29E3793B86C613 PUSH1 0xC0 SHL PUSH2 0x1431 JUMP JUMPDEST PUSH2 0x4A2 PUSH8 0xEA36E5E6C1C9BB38 PUSH1 0xC0 SHL PUSH2 0x1431 JUMP JUMPDEST PUSH2 0x4B6 PUSH8 0x920F54A1B13C55AE PUSH1 0xC0 SHL PUSH2 0x1431 JUMP JUMPDEST PUSH1 0x5 PUSH1 0x0 CALLER PUSH20 0xFFFFFFFFFFFFFFFFFFFFFFFFFFFFFFFFFFFFFFFF AND PUSH20 0xFFFFFFFFFFFFFFFFFFFFFFFFFFFFFFFFFFFFFFFF AND DUP2 MSTORE PUSH1 0x20 ADD SWAP1 DUP2 MSTORE PUSH1 0x20 ADD PUSH1 0x0 KECCAK256 PUSH1 0x0 SWAP1 SLOAD SWAP1 PUSH2 0x100 EXP SWAP1 DIV PUSH1 0xFF AND ISZERO PUSH2 0x543 JUMPI PUSH1 0x40 MLOAD PUSH32 0x8C379A000000000000000000000000000000000000000000000000000000000 DUP2 MSTORE PUSH1 0x4 ADD PUSH2 0x53A SWAP1 PUSH2 0x19AD JUMP JUMPDEST PUSH1 0x40 MLOAD DUP1 SWAP2 SUB SWAP1 REVERT JUMPDEST PUSH2 0x557 PUSH8 0x6F1BE982047A7712 PUSH1 0xC0 SHL PUSH2 0x1431 JUMP JUMPDEST PUSH2 0x56B PUSH8 0xFC10839C8E426101 PUSH1 0xC0 SHL PUSH2 0x1431 JUMP JUMPDEST PUSH2 0x57F PUSH8 0x3564019F5CD535BE PUSH1 0xC0 SHL PUSH2 0x1431 JUMP JUMPDEST PUSH1 0x7 CALLER SWAP1 DUP1 PUSH1 0x1 DUP2 SLOAD ADD DUP1 DUP3 SSTORE DUP1 SWAP2 POP POP PUSH1 0x1 SWAP1 SUB SWAP1 PUSH1 0x0 MSTORE PUSH1 0x20 PUSH1 0x0 KECCAK256 ADD PUSH1 0x0 SWAP1 SWAP2 SWAP1 SWAP2 SWAP1 SWAP2 PUSH2 0x100 EXP DUP2 SLOAD DUP2 PUSH20 0xFFFFFFFFFFFFFFFFFFFFFFFFFFFFFFFFFFFFFFFF MUL NOT AND SWAP1 DUP4 PUSH20 0xFFFFFFFFFFFFFFFFFFFFFFFFFFFFFFFFFFFFFFFF AND MUL OR SWAP1 SSTORE POP PUSH2 0x5F6 PUSH8 0x3F1875BC750BC3D3 PUSH1 0xC0 SHL PUSH2 0x1431 JUMP JUMPDEST PUSH2 0x60A PUSH8 0xD7A375108A702A3B PUSH1 0xC0 SHL PUSH2 0x1431 JUMP JUMPDEST DUP1 ISZERO PUSH2 0x641 JUMPI PUSH2 0x624 PUSH8 0x9AB437255B6272F2 PUSH1 0xC0 SHL PUSH2 0x1431 JUMP JUMPDEST PUSH1 0x1 PUSH1 0x0 DUP2 SLOAD DUP1 SWAP3 SWAP2 SWAP1 PUSH2 0x637 SWAP1 PUSH2 0x19FC JUMP JUMPDEST SWAP2 SWAP1 POP SSTORE POP PUSH2 0x66E JUMP JUMPDEST PUSH2 0x655 PUSH8 0x1F26F19004CE0AEE PUSH1 0xC0 SHL PUSH2 0x1431 JUMP JUMPDEST PUSH1 0x2 PUSH1 0x0 DUP2 SLOAD DUP1 SWAP3 SWAP2 SWAP1 PUSH2 0x668 SWAP1 PUSH2 0x19FC JUMP JUMPDEST SWAP2 SWAP1 POP SSTORE POP JUMPDEST PUSH2 0x682 PUSH8 0x847D752531A012D4 PUSH1 0xC0 SHL PUSH2 0x1431 JUMP JUMPDEST DUP1 PUSH1 0x6 PUSH1 0x0 CALLER PUSH20 0xFFFFFFFFFFFFFFFFFFFFFFFFFFFFFFFFFFFFFFFF AND PUSH20 0xFFFFFFFFFFFFFFFFFFFFFFFFFFFFFFFFFFFFFFFF AND DUP2 MSTORE PUSH1 0x20 ADD SWAP1 DUP2 MSTORE PUSH1 0x20 ADD PUSH1 0x0 KECCAK256 PUSH1 0x0 PUSH2 0x100 EXP DUP2 SLOAD DUP2 PUSH1 0xFF MUL NOT AND SWAP1 DUP4 ISZERO ISZERO MUL OR SWAP1 SSTORE POP PUSH2 0x6ED PUSH8 0x5A56C021DA52049F PUSH1 0xC0 SHL PUSH2 0x1431 JUMP JUMPDEST PUSH1 0x1 PUSH1 0x5 PUSH1 0x0 CALLER PUSH20 0xFFFFFFFFFFFFFFFFFFFFFFFFFFFFFFFFFFFFFFFF AND PUSH20 0xFFFFFFFFFFFFFFFFFFFFFFFFFFFFFFFFFFFFFFFF AND DUP2 MSTORE PUSH1 0x20 ADD SWAP1 DUP2 MSTORE PUSH1 0x20 ADD PUSH1 0x0 KECCAK256 PUSH1 0x0 PUSH2 0x100 EXP DUP2 SLOAD DUP2 PUSH1 0xFF MUL NOT AND SWAP1 DUP4 ISZERO ISZERO MUL OR SWAP1 SSTORE POP POP JUMP JUMPDEST PUSH2 0x75C PUSH8 0x3499921A099884BF PUSH1 0xC0 SHL PUSH2 0x1431 JUMP JUMPDEST PUSH2 0x764 PUSH2 0x1434 JUMP JUMPDEST PUSH2 0x778 PUSH8 0xE640D0A1CD77A826 PUSH1 0xC0 SHL PUSH2 0x1431 JUMP JUMPDEST PUSH2 0x78C PUSH8 0x7FDEBBB899A757E7 PUSH1 0xC0 SHL PUSH2 0x1431 JUMP JUMPDEST PUSH2 0x7A0 PUSH8 0xE0EB9C46CE5126F7 PUSH1 0xC0 SHL PUSH2 0x1431 JUMP JUMPDEST PUSH2 0x7B4 PUSH8 0xF4E5C5CBA92FBEFE PUSH1 0xC0 SHL PUSH2 0x1431 JUMP JUMPDEST PUSH2 0x7C8 PUSH8 0x1F312C3AD014AC12 PUSH1 0xC0 SHL PUSH2 0x1431 JUMP JUMPDEST PUSH2 0x7DC PUSH8 0xABC817AFA7E318C0 PUSH1 0xC0 SHL PUSH2 0x1431 JUMP JUMPDEST PUSH1 0x4 SLOAD TIMESTAMP LT ISZERO PUSH2 0x821 JUMPI PUSH1 0x40 MLOAD PUSH32 0x8C379A000000000000000000000000000000000000000000000000000000000 DUP2 MSTORE PUSH1 0x4 ADD PUSH2 0x818 SWAP1 PUSH2 0x1A90 JUMP JUMPDEST PUSH1 0x40 MLOAD DUP1 SWAP2 SUB SWAP1 REVERT JUMPDEST PUSH2 0x835 PUSH8 0x7A227A03F8C5C0A6 PUSH1 0xC0 SHL PUSH2 0x1431 JUMP JUMPDEST PUSH2 0x849 PUSH8 0xA1283306BE5CFB97 PUSH1 0xC0 SHL PUSH2 0x1431 JUMP JUMPDEST PUSH2 0x85D PUSH8 0x7C502B50688E2D1D PUSH1 0xC0 SHL PUSH2 0x1431 JUMP JUMPDEST PUSH2 0x871 PUSH8 0x5C90A9D6488BC2B8 PUSH1 0xC0 SHL PUSH2 0x1431 JUMP JUMPDEST PUSH2 0x885 PUSH8 0x51001DB66FD5E746 PUSH1 0xC0 SHL PUSH2 0x1431 JUMP JUMPDEST PUSH2 0x899 PUSH8 0x7D8743391A4DC8AD PUSH1 0xC0 SHL PUSH2 0x1431 JUMP JUMPDEST PUSH2 0x8AD PUSH8 0x87038717AF279187 PUSH1 0xC0 SHL PUSH2 0x1431 JUMP JUMPDEST PUSH1 0x0 DUP2 GT PUSH2 0x8F0 JUMPI PUSH1 0x40 MLOAD PUSH32 0x8C379A000000000000000000000000000000000000000000000000000000000 DUP2 MSTORE PUSH1 0x4 ADD PUSH2 0x8E7 SWAP1 PUSH2 0x1AFC JUMP JUMPDEST PUSH1 0x40 MLOAD DUP1 SWAP2 SUB SWAP1 REVERT JUMPDEST PUSH2 0x904 PUSH8 0x81E416BA2E2F1E8 PUSH1 0xC0 SHL PUSH2 0x1431 JUMP JUMPDEST PUSH2 0x918 PUSH8 0xA8B56FDCFC39D563 PUSH1 0xC0 SHL PUSH2 0x1431 JUMP JUMPDEST PUSH2 0x92C PUSH8 0x517077A360D87BA1 PUSH1 0xC0 SHL PUSH2 0x1431 JUMP JUMPDEST PUSH32 0x17A4A0EAE8546EBF70D6A049C5EEA6DFD8104B52BFC612B7BF6277C2E4984765 PUSH1 0x1 SLOAD PUSH1 0x2 SLOAD PUSH1 0x40 MLOAD PUSH2 0x961 SWAP3 SWAP2 SWAP1 PUSH2 0x16CF JUMP JUMPDEST PUSH1 0x40 MLOAD DUP1 SWAP2 SUB SWAP1 LOG1 PUSH2 0x97D PUSH8 0xA2EA63BA0C39F0E8 PUSH1 0xC0 SHL PUSH2 0x1431 JUMP JUMPDEST PUSH1 0x0 PUSH1 0x1 DUP2 SWAP1 SSTORE POP PUSH2 0x999 PUSH8 0xBBACC90C8F25BEBA PUSH1 0xC0 SHL PUSH2 0x1431 JUMP JUMPDEST PUSH1 0x0 PUSH1 0x2 DUP2 SWAP1 SSTORE POP PUSH2 0x9B5 PUSH8 0x359F57F98695A7E5 PUSH1 0xC0 SHL PUSH2 0x1431 JUMP JUMPDEST PUSH2 0x9C9 PUSH8 0x654FB92EAE00181D PUSH1 0xC0 SHL PUSH2 0x1431 JUMP JUMPDEST PUSH1 0x0 JUMPDEST PUSH1 0x7 DUP1 SLOAD SWAP1 POP DUP2 LT ISZERO PUSH2 0xB18 JUMPI PUSH2 0x9ED PUSH8 0x6BA20D00E814C369 PUSH1 0xC0 SHL PUSH2 0x1431 JUMP JUMPDEST PUSH2 0xA01 PUSH8 0xA07726C7D516C60D PUSH1 0xC0 SHL PUSH2 0x1431 JUMP JUMPDEST PUSH1 0x0 PUSH1 0x7 DUP3 DUP2 SLOAD DUP2 LT PUSH2 0xA17 JUMPI PUSH2 0xA16 PUSH2 0x1B1C JUMP JUMPDEST JUMPDEST SWAP1 PUSH1 0x0 MSTORE PUSH1 0x20 PUSH1 0x0 KECCAK256 ADD PUSH1 0x0 SWAP1 SLOAD SWAP1 PUSH2 0x100 EXP SWAP1 DIV PUSH20 0xFFFFFFFFFFFFFFFFFFFFFFFFFFFFFFFFFFFFFFFF AND SWAP1 POP PUSH2 0xA58 PUSH8 0x3B24C272F4C3757C PUSH1 0xC0 SHL PUSH2 0x1431 JUMP JUMPDEST PUSH1 0x5 PUSH1 0x0 DUP3 PUSH20 0xFFFFFFFFFFFFFFFFFFFFFFFFFFFFFFFFFFFFFFFF AND PUSH20 0xFFFFFFFFFFFFFFFFFFFFFFFFFFFFFFFFFFFFFFFF AND DUP2 MSTORE PUSH1 0x20 ADD SWAP1 DUP2 MSTORE PUSH1 0x20 ADD PUSH1 0x0 KECCAK256 PUSH1 0x0 PUSH2 0x100 EXP DUP2 SLOAD SWAP1 PUSH1 0xFF MUL NOT AND SWAP1 SSTORE PUSH2 0xABB PUSH8 0x3615146DFC5999F6 PUSH1 0xC0 SHL PUSH2 0x1431 JUMP JUMPDEST PUSH1 0x6 PUSH1 0x0 DUP3 PUSH20 0xFFFFFFFFFFFFFFFFFFFFFFFFFFFFFFFFFFFFFFFF AND PUSH20 0xFFFFFFFFFFFFFFFFFFFFFFFFFFFFFFFFFFFFFFFF AND DUP2 MSTORE PUSH1 0x20 ADD SWAP1 DUP2 MSTORE PUSH1 0x20 ADD PUSH1 0x0 KECCAK256 PUSH1 0x0 PUSH2 0x100 EXP DUP2 SLOAD SWAP1 PUSH1 0xFF MUL NOT AND SWAP1 SSTORE POP DUP1 DUP1 PUSH1 0x1 ADD SWAP2 POP POP PUSH2 0x9CC JUMP JUMPDEST POP PUSH2 0xB2D PUSH8 0x82884BB18FE7EA04 PUSH1 0xC0 SHL PUSH2 0x1431 JUMP JUMPDEST PUSH1 0x7 PUSH1 0x0 PUSH2 0xB3B SWAP2 SWAP1 PUSH2 0x1587 JUMP JUMPDEST PUSH2 0xB4F PUSH8 0x7995E07DEE9DCABC PUSH1 0xC0 SHL PUSH2 0x1431 JUMP JUMPDEST DUP2 TIMESTAMP PUSH2 0xB5B SWAP2 SWAP1 PUSH2 0x1B4B JUMP JUMPDEST PUSH1 0x3 DUP2 SWAP1 SSTORE POP PUSH2 0xB75 PUSH8 0xE6AB76E5B4FB8C54 PUSH1 0xC0 SHL PUSH2 0x1431 JUMP JUMPDEST DUP1 PUSH1 0x3 SLOAD PUSH2 0xB83 SWAP2 SWAP1 PUSH2 0x1B4B JUMP JUMPDEST PUSH1 0x4 DUP2 SWAP1 SSTORE POP POP POP JUMP JUMPDEST PUSH2 0xB95 PUSH2 0x1434 JUMP JUMPDEST PUSH2 0xB9F PUSH1 0x0 PUSH2 0x14BB JUMP JUMPDEST JUMP JUMPDEST PUSH1 0x0 DUP1 PUSH2 0xBB8 PUSH8 0xC29FE2D5B3E9E593 PUSH1 0xC0 SHL PUSH2 0x1431 JUMP JUMPDEST PUSH2 0xBCC PUSH8 0xE0EB9C46CE5126F7 PUSH1 0xC0 SHL PUSH2 0x1431 JUMP JUMPDEST PUSH2 0xBE0 PUSH8 0xF4E5C5CBA92FBEFE PUSH1 0xC0 SHL PUSH2 0x1431 JUMP JUMPDEST PUSH2 0xBF4 PUSH8 0x1F312C3AD014AC12 PUSH1 0xC0 SHL PUSH2 0x1431 JUMP JUMPDEST PUSH2 0xC08 PUSH8 0xABC817AFA7E318C0 PUSH1 0xC0 SHL PUSH2 0x1431 JUMP JUMPDEST PUSH1 0x4 SLOAD TIMESTAMP LT ISZERO PUSH2 0xC4D JUMPI PUSH1 0x40 MLOAD PUSH32 0x8C379A000000000000000000000000000000000000000000000000000000000 DUP2 MSTORE PUSH1 0x4 ADD PUSH2 0xC44 SWAP1 PUSH2 0x1A90 JUMP JUMPDEST PUSH1 0x40 MLOAD DUP1 SWAP2 SUB SWAP1 REVERT JUMPDEST PUSH2 0xC61 PUSH8 0x7A227A03F8C5C0A6 PUSH1 0xC0 SHL PUSH2 0x1431 JUMP JUMPDEST PUSH2 0xC75 PUSH8 0xA1283306BE5CFB97 PUSH1 0xC0 SHL PUSH2 0x1431 JUMP JUMPDEST PUSH2 0xC89 PUSH8 0x112AA79747020FBC PUSH1 0xC0 SHL PUSH2 0x1431 JUMP JUMPDEST PUSH2 0xC9D PUSH8 0x466E44BD68D48E6F PUSH1 0xC0 SHL PUSH2 0x1431 JUMP JUMPDEST PUSH2 0xCB1 PUSH8 0xA5818B9E9BDE81D6 PUSH1 0xC0 SHL PUSH2 0x1431 JUMP JUMPDEST PUSH2 0xCC5 PUSH8 0x1D2BC0E5D375F83E PUSH1 0xC0 SHL PUSH2 0x1431 JUMP JUMPDEST PUSH1 0x0 PUSH1 0x2 SLOAD PUSH1 0x1 SLOAD PUSH2 0xCD7 SWAP2 SWAP1 PUSH2 0x1B4B JUMP JUMPDEST SWAP1 POP PUSH2 0xCED PUSH8 0x8415F5A9D2CC2A7A PUSH1 0xC0 SHL PUSH2 0x1431 JUMP JUMPDEST DUP1 PUSH1 0x64 PUSH1 0x1 SLOAD PUSH2 0xCFD SWAP2 SWAP1 PUSH2 0x1B7F JUMP JUMPDEST PUSH2 0xD07 SWAP2 SWAP1 PUSH2 0x1BF0 JUMP JUMPDEST SWAP3 POP PUSH2 0xD1D PUSH8 0xFD30A0861C6B5F83 PUSH1 0xC0 SHL PUSH2 0x1431 JUMP JUMPDEST DUP1 PUSH1 0x64 PUSH1 0x2 SLOAD PUSH2 0xD2D SWAP2 SWAP1 PUSH2 0x1B7F JUMP JUMPDEST PUSH2 0xD37 SWAP2 SWAP1 PUSH2 0x1BF0 JUMP JUMPDEST SWAP2 POP PUSH2 0xD4D PUSH8 0x90D47FBE5D4EE928 PUSH1 0xC0 SHL PUSH2 0x1431 JUMP JUMPDEST PUSH2 0xD61 PUSH8 0xD27416BC9BDA6898 PUSH1 0xC0 SHL PUSH2 0x1431 JUMP JUMPDEST PUSH1 0x0 PUSH1 0x7 DUP1 SLOAD SWAP1 POP GT ISZERO PUSH2 0xD9D JUMPI PUSH2 0xD83 PUSH8 0xC1F727EE97BC81B7 PUSH1 0xC0 SHL PUSH2 0x1431 JUMP JUMPDEST PUSH2 0xD97 PUSH8 0x6243669B645BEBB4 PUSH1 0xC0 SHL PUSH2 0x1431 JUMP JUMPDEST POP PUSH2 0xDB3 JUMP JUMPDEST PUSH2 0xDB1 PUSH8 0x6BDCEA004B19C559 PUSH1 0xC0 SHL PUSH2 0x1431 JUMP JUMPDEST POP JUMPDEST SWAP1 SWAP2 JUMP JUMPDEST PUSH1 0x3 SLOAD DUP2 JUMP JUMPDEST PUSH1 0x0 PUSH2 0xDD3 PUSH8 0x73E7C96B9D93BFF3 PUSH1 0xC0 SHL PUSH2 0x1431 JUMP JUMPDEST PUSH2 0xDE7 PUSH8 0x505E1133060C8D85 PUSH1 0xC0 SHL PUSH2 0x1431 JUMP JUMPDEST PUSH2 0xDFB PUSH8 0xB33423556D18767E PUSH1 0xC0 SHL PUSH2 0x1431 JUMP JUMPDEST PUSH2 0xE0F PUSH8 0xBE46B62FBA13581B PUSH1 0xC0 SHL PUSH2 0x1431 JUMP JUMPDEST PUSH1 0x5 PUSH1 0x0 CALLER PUSH20 0xFFFFFFFFFFFFFFFFFFFFFFFFFFFFFFFFFFFFFFFF AND PUSH20 0xFFFFFFFFFFFFFFFFFFFFFFFFFFFFFFFFFFFFFFFF AND DUP2 MSTORE PUSH1 0x20 ADD SWAP1 DUP2 MSTORE PUSH1 0x20 ADD PUSH1 0x0 KECCAK256 PUSH1 0x0 SWAP1 SLOAD SWAP1 PUSH2 0x100 EXP SWAP1 DIV PUSH1 0xFF AND PUSH2 0xE9B JUMPI PUSH1 0x40 MLOAD PUSH32 0x8C379A000000000000000000000000000000000000000000000000000000000 DUP2 MSTORE PUSH1 0x4 ADD PUSH2 0xE92 SWAP1 PUSH2 0x1C6D JUMP JUMPDEST PUSH1 0x40 MLOAD DUP1 SWAP2 SUB SWAP1 REVERT JUMPDEST PUSH2 0xEAF PUSH8 0x3A2DFB581D8365A8 PUSH1 0xC0 SHL PUSH2 0x1431 JUMP JUMPDEST PUSH2 0xEC3 PUSH8 0xDADB42FBA5C156A1 PUSH1 0xC0 SHL PUSH2 0x1431 JUMP JUMPDEST PUSH2 0xED7 PUSH8 0x208B8342667121D0 PUSH1 0xC0 SHL PUSH2 0x1431 JUMP JUMPDEST PUSH1 0x6 PUSH1 0x0 CALLER PUSH20 0xFFFFFFFFFFFFFFFFFFFFFFFFFFFFFFFFFFFFFFFF AND PUSH20 0xFFFFFFFFFFFFFFFFFFFFFFFFFFFFFFFFFFFFFFFF AND DUP2 MSTORE PUSH1 0x20 ADD SWAP1 DUP2 MSTORE PUSH1 0x20 ADD PUSH1 0x0 KECCAK256 PUSH1 0x0 SWAP1 SLOAD SWAP1 PUSH2 0x100 EXP SWAP1 DIV PUSH1 0xFF AND SWAP1 POP SWAP1 JUMP JUMPDEST PUSH1 0x0 DUP1 PUSH1 0x0 SWAP1 SLOAD SWAP1 PUSH2 0x100 EXP SWAP1 DIV PUSH20 0xFFFFFFFFFFFFFFFFFFFFFFFFFFFFFFFFFFFFFFFF AND SWAP1 POP SWAP1 JUMP JUMPDEST PUSH1 0x60 PUSH2 0xF68 PUSH8 0x199C3845D49D8913 PUSH1 0xC0 SHL PUSH2 0x1431 JUMP JUMPDEST PUSH2 0xF7C PUSH8 0xE0EB9C46CE5126F7 PUSH1 0xC0 SHL PUSH2 0x1431 JUMP JUMPDEST PUSH2 0xF90 PUSH8 0xF4E5C5CBA92FBEFE PUSH1 0xC0 SHL PUSH2 0x1431 JUMP JUMPDEST PUSH2 0xFA4 PUSH8 0x1F312C3AD014AC12 PUSH1 0xC0 SHL PUSH2 0x1431 JUMP JUMPDEST PUSH2 0xFB8 PUSH8 0xABC817AFA7E318C0 PUSH1 0xC0 SHL PUSH2 0x1431 JUMP JUMPDEST PUSH1 0x4 SLOAD TIMESTAMP LT ISZERO PUSH2 0xFFD JUMPI PUSH1 0x40 MLOAD PUSH32 0x8C379A000000000000000000000000000000000000000000000000000000000 DUP2 MSTORE PUSH1 0x4 ADD PUSH2 0xFF4 SWAP1 PUSH2 0x1A90 JUMP JUMPDEST PUSH1 0x40 MLOAD DUP1 SWAP2 SUB SWAP1 REVERT JUMPDEST PUSH2 0x1011 PUSH8 0x7A227A03F8C5C0A6 PUSH1 0xC0 SHL PUSH2 0x1431 JUMP JUMPDEST PUSH2 0x1025 PUSH8 0xA1283306BE5CFB97 PUSH1 0xC0 SHL PUSH2 0x1431 JUMP JUMPDEST PUSH2 0x1039 PUSH8 0xE224CA763F444036 PUSH1 0xC0 SHL PUSH2 0x1431 JUMP JUMPDEST PUSH2 0x104D PUSH8 0x8725B2CBF813714E PUSH1 0xC0 SHL PUSH2 0x1431 JUMP JUMPDEST PUSH2 0x1061 PUSH8 0x581D902E32F22461 PUSH1 0xC0 SHL PUSH2 0x1431 JUMP JUMPDEST PUSH2 0x1075 PUSH8 0xD88E450F4836E755 PUSH1 0xC0 SHL PUSH2 0x1431 JUMP JUMPDEST PUSH1 0x2 SLOAD PUSH1 0x1 SLOAD GT ISZERO PUSH2 0x10FA JUMPI PUSH2 0x1095 PUSH8 0x7FA8B4D17C81C958 PUSH1 0xC0 SHL PUSH2 0x1431 JUMP JUMPDEST PUSH2 0x10A9 PUSH8 0x34E0631C4395AD78 PUSH1 0xC0 SHL PUSH2 0x1431 JUMP JUMPDEST PUSH2 0x10BD PUSH8 0x4552E3AD92B5EF8E PUSH1 0xC0 SHL PUSH2 0x1431 JUMP JUMPDEST PUSH1 0x40 MLOAD DUP1 PUSH1 0x40 ADD PUSH1 0x40 MSTORE DUP1 PUSH1 0x13 DUP2 MSTORE PUSH1 0x20 ADD PUSH32 0x59657320766F746573206861766520776F6E2E00000000000000000000000000 DUP2 MSTORE POP SWAP1 POP PUSH2 0x121C JUMP JUMPDEST PUSH2 0x110E PUSH8 0x3A1D5C05D83ED0EB PUSH1 0xC0 SHL PUSH2 0x1431 JUMP JUMPDEST PUSH2 0x1122 PUSH8 0x771BA9DD88F63171 PUSH1 0xC0 SHL PUSH2 0x1431 JUMP JUMPDEST PUSH1 0x1 SLOAD PUSH1 0x2 SLOAD GT ISZERO PUSH2 0x11A7 JUMPI PUSH2 0x1142 PUSH8 0x3033E387F50EBC09 PUSH1 0xC0 SHL PUSH2 0x1431 JUMP JUMPDEST PUSH2 0x1156 PUSH8 0xAD3DCEB9DDB6883B PUSH1 0xC0 SHL PUSH2 0x1431 JUMP JUMPDEST PUSH2 0x116A PUSH8 0x5CE51BFDCDFBA377 PUSH1 0xC0 SHL PUSH2 0x1431 JUMP JUMPDEST PUSH1 0x40 MLOAD DUP1 PUSH1 0x40 ADD PUSH1 0x40 MSTORE DUP1 PUSH1 0x12 DUP2 MSTORE PUSH1 0x20 ADD PUSH32 0x4E6F20766F746573206861766520776F6E2E0000000000000000000000000000 DUP2 MSTORE POP SWAP1 POP PUSH2 0x121C JUMP JUMPDEST PUSH2 0x11BB PUSH8 0x4A43B3F5B1AF545 PUSH1 0xC0 SHL PUSH2 0x1431 JUMP JUMPDEST PUSH2 0x11CF PUSH8 0xFC5325A0CAF18A4F PUSH1 0xC0 SHL PUSH2 0x1431 JUMP JUMPDEST PUSH2 0x11E3 PUSH8 0xA728D12DB9DB54D4 PUSH1 0xC0 SHL PUSH2 0x1431 JUMP JUMPDEST PUSH1 0x40 MLOAD DUP1 PUSH1 0x40 ADD PUSH1 0x40 MSTORE DUP1 PUSH1 0x10 DUP2 MSTORE PUSH1 0x20 ADD PUSH32 0x566F7465732061726520657175616C2E00000000000000000000000000000000 DUP2 MSTORE POP SWAP1 POP JUMPDEST SWAP1 JUMP JUMPDEST PUSH2 0x1233 PUSH8 0xCA67A1DEC2FB6E32 PUSH1 0xC0 SHL PUSH2 0x1431 JUMP JUMPDEST PUSH2 0x123B PUSH2 0x1434 JUMP JUMPDEST PUSH2 0x124F PUSH8 0xF54C92AEB219AFFF PUSH1 0xC0 SHL PUSH2 0x1431 JUMP JUMPDEST PUSH2 0x1263 PUSH8 0xFD5D631768CC64B6 PUSH1 0xC0 SHL PUSH2 0x1431 JUMP JUMPDEST PUSH2 0x1277 PUSH8 0x1723525DD880F489 PUSH1 0xC0 SHL PUSH2 0x1431 JUMP JUMPDEST TIMESTAMP PUSH1 0x4 DUP2 SWAP1 SSTORE POP JUMP JUMPDEST PUSH1 0x0 PUSH2 0x1296 PUSH8 0x425BA4B60B2FA1FE PUSH1 0xC0 SHL PUSH2 0x1431 JUMP JUMPDEST PUSH2 0x12AA PUSH8 0x6188A03EE3A06465 PUSH1 0xC0 SHL PUSH2 0x1431 JUMP JUMPDEST PUSH2 0x12BE PUSH8 0xC7C05E63236E1EAF PUSH1 0xC0 SHL PUSH2 0x1431 JUMP JUMPDEST PUSH1 0x1 SLOAD SWAP1 POP SWAP1 JUMP JUMPDEST PUSH1 0x0 PUSH2 0x12DC PUSH8 0x5EEC5614BDA0325D PUSH1 0xC0 SHL PUSH2 0x1431 JUMP JUMPDEST PUSH2 0x12F0 PUSH8 0x7193F1416E9AD7A0 PUSH1 0xC0 SHL PUSH2 0x1431 JUMP JUMPDEST PUSH2 0x1304 PUSH8 0x1A4213DCA6E570E8 PUSH1 0xC0 SHL PUSH2 0x1431 JUMP JUMPDEST PUSH1 0x5 PUSH1 0x0 DUP4 PUSH20 0xFFFFFFFFFFFFFFFFFFFFFFFFFFFFFFFFFFFFFFFF AND PUSH20 0xFFFFFFFFFFFFFFFFFFFFFFFFFFFFFFFFFFFFFFFF AND DUP2 MSTORE PUSH1 0x20 ADD SWAP1 DUP2 MSTORE PUSH1 0x20 ADD PUSH1 0x0 KECCAK256 PUSH1 0x0 SWAP1 SLOAD SWAP1 PUSH2 0x100 EXP SWAP1 DIV PUSH1 0xFF AND SWAP1 POP SWAP2 SWAP1 POP JUMP JUMPDEST PUSH1 0x0 PUSH2 0x136E PUSH8 0x4546B90474163B72 PUSH1 0xC0 SHL PUSH2 0x1431 JUMP JUMPDEST PUSH2 0x1382 PUSH8 0xCD8A19C776132BA1 PUSH1 0xC0 SHL PUSH2 0x1431 JUMP JUMPDEST PUSH2 0x1396 PUSH8 0xA07ED93BF061FEC5 PUSH1 0xC0 SHL PUSH2 0x1431 JUMP JUMPDEST PUSH1 0x2 SLOAD PUSH1 0x1 SLOAD PUSH2 0x13A6 SWAP2 SWAP1 PUSH2 0x1B4B JUMP JUMPDEST SWAP1 POP SWAP1 JUMP JUMPDEST PUSH2 0x13B3 PUSH2 0x1434 JUMP JUMPDEST PUSH1 0x0 PUSH20 0xFFFFFFFFFFFFFFFFFFFFFFFFFFFFFFFFFFFFFFFF AND DUP2 PUSH20 0xFFFFFFFFFFFFFFFFFFFFFFFFFFFFFFFFFFFFFFFF AND SUB PUSH2 0x1425 JUMPI PUSH1 0x0 PUSH1 0x40 MLOAD PUSH32 0x1E4FBDF700000000000000000000000000000000000000000000000000000000 DUP2 MSTORE PUSH1 0x4 ADD PUSH2 0x141C SWAP2 SWAP1 PUSH2 0x1763 JUMP JUMPDEST PUSH1 0x40 MLOAD DUP1 SWAP2 SUB SWAP1 REVERT JUMPDEST PUSH2 0x142E DUP2 PUSH2 0x14BB JUMP JUMPDEST POP JUMP JUMPDEST POP JUMP JUMPDEST PUSH2 0x143C PUSH2 0x157F JUMP JUMPDEST PUSH20 0xFFFFFFFFFFFFFFFFFFFFFFFFFFFFFFFFFFFFFFFF AND PUSH2 0x145A PUSH2 0xF29 JUMP JUMPDEST PUSH20 0xFFFFFFFFFFFFFFFFFFFFFFFFFFFFFFFFFFFFFFFF AND EQ PUSH2 0x14B9 JUMPI PUSH2 0x147D PUSH2 0x157F JUMP JUMPDEST PUSH1 0x40 MLOAD PUSH32 0x118CDAA700000000000000000000000000000000000000000000000000000000 DUP2 MSTORE PUSH1 0x4 ADD PUSH2 0x14B0 SWAP2 SWAP1 PUSH2 0x1763 JUMP JUMPDEST PUSH1 0x40 MLOAD DUP1 SWAP2 SUB SWAP1 REVERT JUMPDEST JUMP JUMPDEST PUSH1 0x0 DUP1 PUSH1 0x0 SWAP1 SLOAD SWAP1 PUSH2 0x100 EXP SWAP1 DIV PUSH20 0xFFFFFFFFFFFFFFFFFFFFFFFFFFFFFFFFFFFFFFFF AND SWAP1 POP DUP2 PUSH1 0x0 DUP1 PUSH2 0x100 EXP DUP2 SLOAD DUP2 PUSH20 0xFFFFFFFFFFFFFFFFFFFFFFFFFFFFFFFFFFFFFFFF MUL NOT AND SWAP1 DUP4 PUSH20 0xFFFFFFFFFFFFFFFFFFFFFFFFFFFFFFFFFFFFFFFF AND MUL OR SWAP1 SSTORE POP DUP2 PUSH20 0xFFFFFFFFFFFFFFFFFFFFFFFFFFFFFFFFFFFFFFFF AND DUP2 PUSH20 0xFFFFFFFFFFFFFFFFFFFFFFFFFFFFFFFFFFFFFFFF AND PUSH32 0x8BE0079C531659141344CD1FD0A4F28419497F9722A3DAAFE3B4186F6B6457E0 PUSH1 0x40 MLOAD PUSH1 0x40 MLOAD DUP1 SWAP2 SUB SWAP1 LOG3 POP POP JUMP JUMPDEST PUSH1 0x0 CALLER SWAP1 POP SWAP1 JUMP JUMPDEST POP DUP1 SLOAD PUSH1 0x0 DUP3 SSTORE SWAP1 PUSH1 0x0 MSTORE PUSH1 0x20 PUSH1 0x0 KECCAK256 SWAP1 DUP2 ADD SWAP1 PUSH2 0x15A5 SWAP2 SWAP1 PUSH2 0x15A8 JUMP JUMPDEST POP JUMP JUMPDEST JUMPDEST DUP1 DUP3 GT ISZERO PUSH2 0x15C1 JUMPI PUSH1 0x0 DUP2 PUSH1 0x0 SWAP1 SSTORE POP PUSH1 0x1 ADD PUSH2 0x15A9 JUMP JUMPDEST POP SWAP1 JUMP JUMPDEST PUSH1 0x0 DUP2 SWAP1 POP SWAP2 SWAP1 POP JUMP JUMPDEST PUSH2 0x15D8 DUP2 PUSH2 0x15C5 JUMP JUMPDEST DUP3 MSTORE POP POP JUMP JUMPDEST PUSH1 0x0 PUSH1 0x20 DUP3 ADD SWAP1 POP PUSH2 0x15F3 PUSH1 0x0 DUP4 ADD DUP5 PUSH2 0x15CF JUMP JUMPDEST SWAP3 SWAP2 POP POP JUMP JUMPDEST PUSH1 0x0 DUP1 REVERT JUMPDEST PUSH1 0x0 DUP2 ISZERO ISZERO SWAP1 POP SWAP2 SWAP1 POP JUMP JUMPDEST PUSH2 0x1613 DUP2 PUSH2 0x15FE JUMP JUMPDEST DUP2 EQ PUSH2 0x161E JUMPI PUSH1 0x0 DUP1 REVERT JUMPDEST POP JUMP JUMPDEST PUSH1 0x0 DUP2 CALLDATALOAD SWAP1 POP PUSH2 0x1630 DUP2 PUSH2 0x160A JUMP JUMPDEST SWAP3 SWAP2 POP POP JUMP JUMPDEST PUSH1 0x0 PUSH1 0x20 DUP3 DUP5 SUB SLT ISZERO PUSH2 0x164C JUMPI PUSH2 0x164B PUSH2 0x15F9 JUMP JUMPDEST JUMPDEST PUSH1 0x0 PUSH2 0x165A DUP5 DUP3 DUP6 ADD PUSH2 0x1621 JUMP JUMPDEST SWAP2 POP POP SWAP3 SWAP2 POP POP JUMP JUMPDEST PUSH2 0x166C DUP2 PUSH2 0x15C5 JUMP JUMPDEST DUP2 EQ PUSH2 0x1677 JUMPI PUSH1 0x0 DUP1 REVERT JUMPDEST POP JUMP JUMPDEST PUSH1 0x0 DUP2 CALLDATALOAD SWAP1 POP PUSH2 0x1689 DUP2 PUSH2 0x1663 JUMP JUMPDEST SWAP3 SWAP2 POP POP JUMP JUMPDEST PUSH1 0x0 DUP1 PUSH1 0x40 DUP4 DUP6 SUB SLT ISZERO PUSH2 0x16A6 JUMPI PUSH2 0x16A5 PUSH2 0x15F9 JUMP JUMPDEST JUMPDEST PUSH1 0x0 PUSH2 0x16B4 DUP6 DUP3 DUP7 ADD PUSH2 0x167A JUMP JUMPDEST SWAP3 POP POP PUSH1 0x20 PUSH2 0x16C5 DUP6 DUP3 DUP7 ADD PUSH2 0x167A JUMP JUMPDEST SWAP2 POP POP SWAP3 POP SWAP3 SWAP1 POP JUMP JUMPDEST PUSH1 0x0 PUSH1 0x40 DUP3 ADD SWAP1 POP PUSH2 0x16E4 PUSH1 0x0 DUP4 ADD DUP6 PUSH2 0x15CF JUMP JUMPDEST PUSH2 0x16F1 PUSH1 0x20 DUP4 ADD DUP5 PUSH2 0x15CF JUMP JUMPDEST SWAP4 SWAP3 POP POP POP JUMP JUMPDEST PUSH2 0x1701 DUP2 PUSH2 0x15FE JUMP JUMPDEST DUP3 MSTORE POP POP JUMP JUMPDEST PUSH1 0x0 PUSH1 0x20 DUP3 ADD SWAP1 POP PUSH2 0x171C PUSH1 0x0 DUP4 ADD DUP5 PUSH2 0x16F8 JUMP JUMPDEST SWAP3 SWAP2 POP POP JUMP JUMPDEST PUSH1 0x0 PUSH20 0xFFFFFFFFFFFFFFFFFFFFFFFFFFFFFFFFFFFFFFFF DUP3 AND SWAP1 POP SWAP2 SWAP1 POP JUMP JUMPDEST PUSH1 0x0 PUSH2 0x174D DUP3 PUSH2 0x1722 JUMP JUMPDEST SWAP1 POP SWAP2 SWAP1 POP JUMP JUMPDEST PUSH2 0x175D DUP2 PUSH2 0x1742 JUMP JUMPDEST DUP3 MSTORE POP POP JUMP JUMPDEST PUSH1 0x0 PUSH1 0x20 DUP3 ADD SWAP1 POP PUSH2 0x1778 PUSH1 0x0 DUP4 ADD DUP5 PUSH2 0x1754 JUMP JUMPDEST SWAP3 SWAP2 POP POP JUMP JUMPDEST PUSH1 0x0 DUP2 MLOAD SWAP1 POP SWAP2 SWAP1 POP JUMP JUMPDEST PUSH1 0x0 DUP3 DUP3 MSTORE PUSH1 0x20 DUP3 ADD SWAP1 POP SWAP3 SWAP2 POP POP JUMP JUMPDEST PUSH1 0x0 JUMPDEST DUP4 DUP2 LT ISZERO PUSH2 0x17B8 JUMPI DUP1 DUP3 ADD MLOAD DUP2 DUP5 ADD MSTORE PUSH1 0x20 DUP2 ADD SWAP1 POP PUSH2 0x179D JUMP JUMPDEST PUSH1 0x0 DUP5 DUP5 ADD MSTORE POP POP POP POP JUMP JUMPDEST PUSH1 0x0 PUSH1 0x1F NOT PUSH1 0x1F DUP4 ADD AND SWAP1 POP SWAP2 SWAP1 POP JUMP JUMPDEST PUSH1 0x0 PUSH2 0x17E0 DUP3 PUSH2 0x177E JUMP JUMPDEST PUSH2 0x17EA DUP2 DUP6 PUSH2 0x1789 JUMP JUMPDEST SWAP4 POP PUSH2 0x17FA DUP2 DUP6 PUSH1 0x20 DUP7 ADD PUSH2 0x179A JUMP JUMPDEST PUSH2 0x1803 DUP2 PUSH2 0x17C4 JUMP JUMPDEST DUP5 ADD SWAP2 POP POP SWAP3 SWAP2 POP POP JUMP JUMPDEST PUSH1 0x0 PUSH1 0x20 DUP3 ADD SWAP1 POP DUP2 DUP2 SUB PUSH1 0x0 DUP4 ADD MSTORE PUSH2 0x1828 DUP2 DUP5 PUSH2 0x17D5 JUMP JUMPDEST SWAP1 POP SWAP3 SWAP2 POP POP JUMP JUMPDEST PUSH2 0x1839 DUP2 PUSH2 0x1742 JUMP JUMPDEST DUP2 EQ PUSH2 0x1844 JUMPI PUSH1 0x0 DUP1 REVERT JUMPDEST POP JUMP JUMPDEST PUSH1 0x0 DUP2 CALLDATALOAD SWAP1 POP PUSH2 0x1856 DUP2 PUSH2 0x1830 JUMP JUMPDEST SWAP3 SWAP2 POP POP JUMP JUMPDEST PUSH1 0x0 PUSH1 0x20 DUP3 DUP5 SUB SLT ISZERO PUSH2 0x1872 JUMPI PUSH2 0x1871 PUSH2 0x15F9 JUMP JUMPDEST JUMPDEST PUSH1 0x0 PUSH2 0x1880 DUP5 DUP3 DUP6 ADD PUSH2 0x1847 JUMP JUMPDEST SWAP2 POP POP SWAP3 SWAP2 POP POP JUMP JUMPDEST PUSH32 0x566F74696E67206E6F7420737461727465642E00000000000000000000000000 PUSH1 0x0 DUP3 ADD MSTORE POP JUMP JUMPDEST PUSH1 0x0 PUSH2 0x18BF PUSH1 0x13 DUP4 PUSH2 0x1789 JUMP JUMPDEST SWAP2 POP PUSH2 0x18CA DUP3 PUSH2 0x1889 JUMP JUMPDEST PUSH1 0x20 DUP3 ADD SWAP1 POP SWAP2 SWAP1 POP JUMP JUMPDEST PUSH1 0x0 PUSH1 0x20 DUP3 ADD SWAP1 POP DUP2 DUP2 SUB PUSH1 0x0 DUP4 ADD MSTORE PUSH2 0x18EE DUP2 PUSH2 0x18B2 JUMP JUMPDEST SWAP1 POP SWAP2 SWAP1 POP JUMP JUMPDEST PUSH32 0x566F74696E6720656E6465642E00000000000000000000000000000000000000 PUSH1 0x0 DUP3 ADD MSTORE POP JUMP JUMPDEST PUSH1 0x0 PUSH2 0x192B PUSH1 0xD DUP4 PUSH2 0x1789 JUMP JUMPDEST SWAP2 POP PUSH2 0x1936 DUP3 PUSH2 0x18F5 JUMP JUMPDEST PUSH1 0x20 DUP3 ADD SWAP1 POP SWAP2 SWAP1 POP JUMP JUMPDEST PUSH1 0x0 PUSH1 0x20 DUP3 ADD SWAP1 POP DUP2 DUP2 SUB PUSH1 0x0 DUP4 ADD MSTORE PUSH2 0x195A DUP2 PUSH2 0x191E JUMP JUMPDEST SWAP1 POP SWAP2 SWAP1 POP JUMP JUMPDEST PUSH32 0x416C726561647920766F7465642E000000000000000000000000000000000000 PUSH1 0x0 DUP3 ADD MSTORE POP JUMP JUMPDEST PUSH1 0x0 PUSH2 0x1997 PUSH1 0xE DUP4 PUSH2 0x1789 JUMP JUMPDEST SWAP2 POP PUSH2 0x19A2 DUP3 PUSH2 0x1961 JUMP JUMPDEST PUSH1 0x20 DUP3 ADD SWAP1 POP SWAP2 SWAP1 POP JUMP JUMPDEST PUSH1 0x0 PUSH1 0x20 DUP3 ADD SWAP1 POP DUP2 DUP2 SUB PUSH1 0x0 DUP4 ADD MSTORE PUSH2 0x19C6 DUP2 PUSH2 0x198A JUMP JUMPDEST SWAP1 POP SWAP2 SWAP1 POP JUMP JUMPDEST PUSH32 0x4E487B7100000000000000000000000000000000000000000000000000000000 PUSH1 0x0 MSTORE PUSH1 0x11 PUSH1 0x4 MSTORE PUSH1 0x24 PUSH1 0x0 REVERT JUMPDEST PUSH1 0x0 PUSH2 0x1A07 DUP3 PUSH2 0x15C5 JUMP JUMPDEST SWAP2 POP PUSH32 0xFFFFFFFFFFFFFFFFFFFFFFFFFFFFFFFFFFFFFFFFFFFFFFFFFFFFFFFFFFFFFFFF DUP3 SUB PUSH2 0x1A39 JUMPI PUSH2 0x1A38 PUSH2 0x19CD JUMP JUMPDEST JUMPDEST PUSH1 0x1 DUP3 ADD SWAP1 POP SWAP2 SWAP1 POP JUMP JUMPDEST PUSH32 0x566F74696E67206973206F6E676F696E672E0000000000000000000000000000 PUSH1 0x0 DUP3 ADD MSTORE POP JUMP JUMPDEST PUSH1 0x0 PUSH2 0x1A7A PUSH1 0x12 DUP4 PUSH2 0x1789 JUMP JUMPDEST SWAP2 POP PUSH2 0x1A85 DUP3 PUSH2 0x1A44 JUMP JUMPDEST PUSH1 0x20 DUP3 ADD SWAP1 POP SWAP2 SWAP1 POP JUMP JUMPDEST PUSH1 0x0 PUSH1 0x20 DUP3 ADD SWAP1 POP DUP2 DUP2 SUB PUSH1 0x0 DUP4 ADD MSTORE PUSH2 0x1AA9 DUP2 PUSH2 0x1A6D JUMP JUMPDEST SWAP1 POP SWAP2 SWAP1 POP JUMP JUMPDEST PUSH32 0x4475726174696F6E206D75737420626520706F73697469766500000000000000 PUSH1 0x0 DUP3 ADD MSTORE POP JUMP JUMPDEST PUSH1 0x0 PUSH2 0x1AE6 PUSH1 0x19 DUP4 PUSH2 0x1789 JUMP JUMPDEST SWAP2 POP PUSH2 0x1AF1 DUP3 PUSH2 0x1AB0 JUMP JUMPDEST PUSH1 0x20 DUP3 ADD SWAP1 POP SWAP2 SWAP1 POP JUMP JUMPDEST PUSH1 0x0 PUSH1 0x20 DUP3 ADD SWAP1 POP DUP2 DUP2 SUB PUSH1 0x0 DUP4 ADD MSTORE PUSH2 0x1B15 DUP2 PUSH2 0x1AD9 JUMP JUMPDEST SWAP1 POP SWAP2 SWAP1 POP JUMP JUMPDEST PUSH32 0x4E487B7100000000000000000000000000000000000000000000000000000000 PUSH1 0x0 MSTORE PUSH1 0x32 PUSH1 0x4 MSTORE PUSH1 0x24 PUSH1 0x0 REVERT JUMPDEST PUSH1 0x0 PUSH2 0x1B56 DUP3 PUSH2 0x15C5 JUMP JUMPDEST SWAP2 POP PUSH2 0x1B61 DUP4 PUSH2 0x15C5 JUMP JUMPDEST SWAP3 POP DUP3 DUP3 ADD SWAP1 POP DUP1 DUP3 GT ISZERO PUSH2 0x1B79 JUMPI PUSH2 0x1B78 PUSH2 0x19CD JUMP JUMPDEST JUMPDEST SWAP3 SWAP2 POP POP JUMP JUMPDEST PUSH1 0x0 PUSH2 0x1B8A DUP3 PUSH2 0x15C5 JUMP JUMPDEST SWAP2 POP PUSH2 0x1B95 DUP4 PUSH2 0x15C5 JUMP JUMPDEST SWAP3 POP DUP3 DUP3 MUL PUSH2 0x1BA3 DUP2 PUSH2 0x15C5 JUMP JUMPDEST SWAP2 POP DUP3 DUP3 DIV DUP5 EQ DUP4 ISZERO OR PUSH2 0x1BBA JUMPI PUSH2 0x1BB9 PUSH2 0x19CD JUMP JUMPDEST JUMPDEST POP SWAP3 SWAP2 POP POP JUMP JUMPDEST PUSH32 0x4E487B7100000000000000000000000000000000000000000000000000000000 PUSH1 0x0 MSTORE PUSH1 0x12 PUSH1 0x4 MSTORE PUSH1 0x24 PUSH1 0x0 REVERT JUMPDEST PUSH1 0x0 PUSH2 0x1BFB DUP3 PUSH2 0x15C5 JUMP JUMPDEST SWAP2 POP PUSH2 0x1C06 DUP4 PUSH2 0x15C5 JUMP JUMPDEST SWAP3 POP DUP3 PUSH2 0x1C16 JUMPI PUSH2 0x1C15 PUSH2 0x1BC1 JUMP JUMPDEST JUMPDEST DUP3 DUP3 DIV SWAP1 POP SWAP3 SWAP2 POP POP JUMP JUMPDEST PUSH32 0x596F752068617665206E6F7420766F746564207965742E000000000000000000 PUSH1 0x0 DUP3 ADD MSTORE POP JUMP JUMPDEST PUSH1 0x0 PUSH2 0x1C57 PUSH1 0x17 DUP4 PUSH2 0x1789 JUMP JUMPDEST SWAP2 POP PUSH2 0x1C62 DUP3 PUSH2 0x1C21 JUMP JUMPDEST PUSH1 0x20 DUP3 ADD SWAP1 POP SWAP2 SWAP1 POP JUMP JUMPDEST PUSH1 0x0 PUSH1 0x20 DUP3 ADD SWAP1 POP DUP2 DUP2 SUB PUSH1 0x0 DUP4 ADD MSTORE PUSH2 0x1C86 DUP2 PUSH2 0x1C4A JUMP JUMPDEST SWAP1 POP SWAP2 SWAP1 POP JUMP INVALID LOG2 PUSH5 0x6970667358 0x22 SLT KECCAK256 0x4B SAR CALLCODE GASPRICE RETURNDATASIZE 0xDD 0xB1 0x22 MLOAD SDIV 0xCA 0xB8 STOP 0xF DUP3 TLOAD 0x24 0xD0 COINBASE MULMOD SMOD 0xD4 CALLDATACOPY 0xC3 PUSH9 0xB0A262608D109A6473 PUSH16 0x6C634300081C00330000000000000000 "},"methodIdentifiers":{"checkHasVoted(address)":"e35f8cef","endTime()":"3197cbb6","endVoteManually()":"c0bc8298","getMyVote()":"8cb647d3","getNoCount()":"3722b0de","getParticipationRate()":"74a10b2c","getVoteCount()":"e7b3387c","getWinner()":"8e7ea5b2","getYesCount()":"dbfb1f8a","owner()":"8da5cb5b","renounceOwnership()":"715018a6","resetVote(uint256,uint256)":"70a5525c","startTime()":"78e97925","transferOwnership(address)":"f2fde38b","vote(bool)":"4b9f5c98"}}}}}