{
  "_format": "hh-sol-artifact-1",
  "contractName": "SimpleVoting",
  "sourceName": "contracts/SimpleVoting.sol",
  "abi": [
    {
      "inputs": [
        {
          "internalType": "uint256",
          "name": "_startAfter",
          "type": "uint256"
        },
        {
          "internalType": "uint256",
          "name": "_durationInSeconds",
          "type": "uint256"
        }
      ],
      "stateMutability": "nonpayable",
      "type": "constructor"
    },
    {
      "inputs": [
        {
          "internalType": "address",
          "name": "owner",
          "type": "address"
        }
      ],
      "name": "OwnableInvalidOwner",
      "type": "error"
    },
    {
      "inputs": [
        {
          "internalType": "address",
          "name": "account",
          "type": "address"
        }
      ],
      "name": "OwnableUnauthorizedAccount",
      "type": "error"
    },
    {
      "anonymous": false,
      "inputs": [
        {
          "indexed": true,
          "internalType": "address",
          "name": "previousOwner",
          "type": "address"
        },
        {
          "indexed": true,
          "internalType": "address",
          "name": "newOwner",
          "type": "address"
        }
      ],
      "name": "OwnershipTransferred",
      "type": "event"
    },
    {
      "anonymous": false,
      "inputs": [
        {
          "indexed": false,
          "internalType": "uint256",
          "name": "yesVotes",
          "type": "uint256"
        },
        {
          "indexed": false,
          "internalType": "uint256",
          "name": "noVotes",
          "type": "uint256"
        }
      ],
      "name": "VoteReset",
      "type": "event"
    },
    {
      "inputs": [
        {
          "internalType": "address",
          "name": "_user",
          "type": "address"
        }
      ],
      "name": "checkHasVoted",
      "outputs": [
        {
          "internalType": "bool",
          "name": "",
          "type": "bool"
        }
      ],
      "stateMutability": "view",
      "type": "function"
    },
    {
      "inputs": [],
      "name": "endTime",
      "outputs": [
        {
          "internalType": "uint256",
          "name": "",
          "type": "uint256"
        }
      ],
      "stateMutability": "view",
      "type": "function"
    },
    {
      "inputs": [],
      "name": "endVoteManually",
      "outputs": [],
      "stateMutability": "nonpayable",
      "type": "function"
    },
    {
      "inputs": [],
      "name": "getMyVote",
      "outputs": [
        {
          "internalType": "bool",
          "name": "_userVote",
          "type": "bool"
        }
      ],
      "stateMutability": "view",
      "type": "function"
    },
    {
      "inputs": [],
      "name": "getNoCount",
      "outputs": [
        {
          "internalType": "uint256",
          "name": "",
          "type": "uint256"
        }
      ],
      "stateMutability": "view",
      "type": "function"
    },
    {
      "inputs": [],
      "name": "getParticipationRate",
      "outputs": [
        {
          "internalType": "uint256",
          "name": "_yesRate",
          "type": "uint256"
        },
        {
          "internalType": "uint256",
          "name": "_noRate",
          "type": "uint256"
        }
      ],
      "stateMutability": "view",
      "type": "function"
    },
    {
      "inputs": [],
      "name": "getVoteCount",
      "outputs": [
        {
          "internalType": "uint256",
          "name": "",
          "type": "uint256"
        }
      ],
      "stateMutability": "view",
      "type": "function"
    },
    {
      "inputs": [],
      "name": "getWinner",
      "outputs": [
        {
          "internalType": "string",
          "name": "",
          "type": "string"
        }
      ],
      "stateMutability": "view",
      "type": "function"
    },
    {
      "inputs": [],
      "name": "getYesCount",
      "outputs": [
        {
          "internalType": "uint256",
          "name": "",
          "type": "uint256"
        }
      ],
      "stateMutability": "view",
      "type": "function"
    },
    {
      "inputs": [],
      "name": "owner",
      "outputs": [
        {
          "internalType": "address",
          "name": "",
          "type": "address"
        }
      ],
      "stateMutability": "view",
      "type": "function"
    },
    {
      "inputs": [],
      "name": "renounceOwnership",
      "outputs": [],
      "stateMutability": "nonpayable",
      "type": "function"
    },
    {
      "inputs": [
        {
          "internalType": "uint256",
          "name": "_startAfter",
          "type": "uint256"
        },
        {
          "internalType": "uint256",
          "name": "_durationInSeconds",
          "type": "uint256"
        }
      ],
      "name": "resetVote",
      "outputs": [],
      "stateMutability": "nonpayable",
      "type": "function"
    },
    {
      "inputs": [],
      "name": "startTime",
      "outputs": [
        {
          "internalType": "uint256",
          "name": "",
          "type": "uint256"
        }
      ],
      "stateMutability": "view",
      "type": "function"
    },
    {
      "inputs": [
        {
          "internalType": "address",
          "name": "newOwner",
          "type": "address"
        }
      ],
      "name": "transferOwnership",
      "outputs": [],
      "stateMutability": "nonpayable",
      "type": "function"
    },
    {
      "inputs": [
        {
          "internalType": "bool",
          "name": "_myVote",
          "type": "bool"
        }
      ],
      "name": "vote",
      "outputs": [],
      "stateMutability": "nonpayable",
      "type": "function"
    }
  ],
  "bytecode": "0x608060405234801561001057600080fd5b5060405161212b38038061212b833981810160405281019061003291906102dd565b33600073ffffffffffffffffffffffffffffffffffffffff168173ffffffffffffffffffffffffffffffffffffffff16036100a55760006040517f1e4fbdf700000000000000000000000000000000000000000000000000000000815260040161009c919061035e565b60405180910390fd5b6100b4816101db60201b60201c565b506100cf679595fc169530954860c01b61029f60201b60201c565b6100e96734c5690329530b0f60c01b61029f60201b60201c565b610103674695ff0a9ec49ceb60c01b61029f60201b60201c565b61011d670923051222a1527060c01b61029f60201b60201c565b60008111610160576040517f08c379a0000000000000000000000000000000000000000000000000000000008152600401610157906103d6565b60405180910390fd5b61017a679d597b38fc940a8060c01b61029f60201b60201c565b610194678cbd5f267449fed160c01b61029f60201b60201c565b81426101a09190610425565b6003819055506101c0674b223fff6950973260c01b61029f60201b60201c565b806003546101ce9190610425565b6004819055505050610459565b60008060009054906101000a900473ffffffffffffffffffffffffffffffffffffffff169050816000806101000a81548173ffffffffffffffffffffffffffffffffffffffff021916908373ffffffffffffffffffffffffffffffffffffffff1602179055508173ffffffffffffffffffffffffffffffffffffffff168173ffffffffffffffffffffffffffffffffffffffff167f8be0079c531659141344cd1fd0a4f28419497f9722a3daafe3b4186f6b6457e060405160405180910390a35050565b50565b600080fd5b6000819050919050565b6102ba816102a7565b81146102c557600080fd5b50565b6000815190506102d7816102b1565b92915050565b600080604083850312156102f4576102f36102a2565b5b6000610302858286016102c8565b9250506020610313858286016102c8565b9150509250929050565b600073ffffffffffffffffffffffffffffffffffffffff82169050919050565b60006103488261031d565b9050919050565b6103588161033d565b82525050565b6000602082019050610373600083018461034f565b92915050565b600082825260208201905092915050565b7f4475726174696f6e206d75737420626520706f73697469766500000000000000600082015250565b60006103c0601983610379565b91506103cb8261038a565b602082019050919050565b600060208201905081810360008301526103ef816103b3565b9050919050565b7f4e487b7100000000000000000000000000000000000000000000000000000000600052601160045260246000fd5b6000610430826102a7565b915061043b836102a7565b9250828201905080821115610453576104526103f6565b5b92915050565b611cc3806104686000396000f3fe608060405234801561001057600080fd5b50600436106100f55760003560e01c80638cb647d311610097578063dbfb1f8a11610066578063dbfb1f8a14610219578063e35f8cef14610237578063e7b3387c14610267578063f2fde38b14610285576100f5565b80638cb647d3146101b55780638da5cb5b146101d35780638e7ea5b2146101f1578063c0bc82981461020f576100f5565b806370a5525c116100d357806370a5525c14610152578063715018a61461016e57806374a10b2c1461017857806378e9792514610197576100f5565b80633197cbb6146100fa5780633722b0de146101185780634b9f5c9814610136575b600080fd5b6101026102a1565b60405161010f91906115de565b60405180910390f35b6101206102a7565b60405161012d91906115de565b60405180910390f35b610150600480360381019061014b9190611636565b6102ed565b005b61016c6004803603810190610167919061168f565b610748565b005b610176610b8d565b005b610180610ba1565b60405161018e9291906116cf565b60405180910390f35b61019f610db7565b6040516101ac91906115de565b60405180910390f35b6101bd610dbd565b6040516101ca9190611707565b60405180910390f35b6101db610f29565b6040516101e89190611763565b60405180910390f35b6101f9610f52565b604051610206919061180e565b60405180910390f35b61021761121f565b005b610221611280565b60405161022e91906115de565b60405180910390f35b610251600480360381019061024c919061185c565b6112c6565b60405161025e9190611707565b60405180910390f35b61026f611358565b60405161027c91906115de565b60405180910390f35b61029f600480360381019061029a919061185c565b6113ab565b005b60045481565b60006102bd67414f355e09a70d6060c01b611431565b6102d167f7f5eee7efc0579760c01b611431565b6102e567debaa7a07e4a284260c01b611431565b600254905090565b61030167160993cef56511fa60c01b611431565b610315679c9cb7cad483bb3460c01b611431565b61032967f26d76336c47e63560c01b611431565b61033d6723f83e25aee29fcc60c01b611431565b610351676f9de23ec3a61e2f60c01b611431565b600354421015610396576040517f08c379a000000000000000000000000000000000000000000000000000000000815260040161038d906118d5565b60405180910390fd5b6103aa67648b8071b52da7f460c01b611431565b6103be6736a37cc8c41ae94760c01b611431565b6103d2673a7cb6d31c9e85a360c01b611431565b6103e6671f48b053175492ea60c01b611431565b600454421061042a576040517f08c379a000000000000000000000000000000000000000000000000000000000815260040161042190611941565b60405180910390fd5b61043e675988e45f9e1c020460c01b611431565b61045267333a1508210919a260c01b611431565b6104666793921d846597e66a60c01b611431565b61047a677264d66921fb9f1860c01b611431565b61048e67fd29e3793b86c61360c01b611431565b6104a267ea36e5e6c1c9bb3860c01b611431565b6104b667920f54a1b13c55ae60c01b611431565b600560003373ffffffffffffffffffffffffffffffffffffffff1673ffffffffffffffffffffffffffffffffffffffff16815260200190815260200160002060009054906101000a900460ff1615610543576040517f08c379a000000000000000000000000000000000000000000000000000000000815260040161053a906119ad565b60405180910390fd5b610557676f1be982047a771260c01b611431565b61056b67fc10839c8e42610160c01b611431565b61057f673564019f5cd535be60c01b611431565b6007339080600181540180825580915050600190039060005260206000200160009091909190916101000a81548173ffffffffffffffffffffffffffffffffffffffff021916908373ffffffffffffffffffffffffffffffffffffffff1602179055506105f6673f1875bc750bc3d360c01b611431565b61060a67d7a375108a702a3b60c01b611431565b801561064157610624679ab437255b6272f260c01b611431565b60016000815480929190610637906119fc565b919050555061066e565b610655671f26f19004ce0aee60c01b611431565b60026000815480929190610668906119fc565b91905055505b61068267847d752531a012d460c01b611431565b80600660003373ffffffffffffffffffffffffffffffffffffffff1673ffffffffffffffffffffffffffffffffffffffff16815260200190815260200160002060006101000a81548160ff0219169083151502179055506106ed675a56c021da52049f60c01b611431565b6001600560003373ffffffffffffffffffffffffffffffffffffffff1673ffffffffffffffffffffffffffffffffffffffff16815260200190815260200160002060006101000a81548160ff02191690831515021790555050565b61075c673499921a099884bf60c01b611431565b610764611434565b61077867e640d0a1cd77a82660c01b611431565b61078c677fdebbb899a757e760c01b611431565b6107a067e0eb9c46ce5126f760c01b611431565b6107b467f4e5c5cba92fbefe60c01b611431565b6107c8671f312c3ad014ac1260c01b611431565b6107dc67abc817afa7e318c060c01b611431565b600454421015610821576040517f08c379a000000000000000000000000000000000000000000000000000000000815260040161081890611a90565b60405180910390fd5b610835677a227a03f8c5c0a660c01b611431565b61084967a1283306be5cfb9760c01b611431565b61085d677c502b50688e2d1d60c01b611431565b610871675c90a9d6488bc2b860c01b611431565b6108856751001db66fd5e74660c01b611431565b610899677d8743391a4dc8ad60c01b611431565b6108ad6787038717af27918760c01b611431565b600081116108f0576040517f08c379a00000000000000000000000000000000000000000000000000000000081526004016108e790611afc565b60405180910390fd5b61090467081e416ba2e2f1e860c01b611431565b61091867a8b56fdcfc39d56360c01b611431565b61092c67517077a360d87ba160c01b611431565b7f17a4a0eae8546ebf70d6a049c5eea6dfd8104b52bfc612b7bf6277c2e49847656001546002546040516109619291906116cf565b60405180910390a161097d67a2ea63ba0c39f0e860c01b611431565b600060018190555061099967bbacc90c8f25beba60c01b611431565b60006002819055506109b567359f57f98695a7e560c01b611431565b6109c967654fb92eae00181d60c01b611431565b60005b600780549050811015610b18576109ed676ba20d00e814c36960c01b611431565b610a0167a07726c7d516c60d60c01b611431565b600060078281548110610a1757610a16611b1c565b5b9060005260206000200160009054906101000a900473ffffffffffffffffffffffffffffffffffffffff169050610a58673b24c272f4c3757c60c01b611431565b600560008273ffffffffffffffffffffffffffffffffffffffff1673ffffffffffffffffffffffffffffffffffffffff16815260200190815260200160002060006101000a81549060ff0219169055610abb673615146dfc5999f660c01b611431565b600660008273ffffffffffffffffffffffffffffffffffffffff1673ffffffffffffffffffffffffffffffffffffffff16815260200190815260200160002060006101000a81549060ff02191690555080806001019150506109cc565b50610b2d6782884bb18fe7ea0460c01b611431565b60076000610b3b9190611587565b610b4f677995e07dee9dcabc60c01b611431565b8142610b5b9190611b4b565b600381905550610b7567e6ab76e5b4fb8c5460c01b611431565b80600354610b839190611b4b565b6004819055505050565b610b95611434565b610b9f60006114bb565b565b600080610bb867c29fe2d5b3e9e59360c01b611431565b610bcc67e0eb9c46ce5126f760c01b611431565b610be067f4e5c5cba92fbefe60c01b611431565b610bf4671f312c3ad014ac1260c01b611431565b610c0867abc817afa7e318c060c01b611431565b600454421015610c4d576040517f08c379a0000000000000000000000000000000000000000000000000000000008152600401610c4490611a90565b60405180910390fd5b610c61677a227a03f8c5c0a660c01b611431565b610c7567a1283306be5cfb9760c01b611431565b610c8967112aa79747020fbc60c01b611431565b610c9d67466e44bd68d48e6f60c01b611431565b610cb167a5818b9e9bde81d660c01b611431565b610cc5671d2bc0e5d375f83e60c01b611431565b6000600254600154610cd79190611b4b565b9050610ced678415f5a9d2cc2a7a60c01b611431565b806064600154610cfd9190611b7f565b610d079190611bf0565b9250610d1d67fd30a0861c6b5f8360c01b611431565b806064600254610d2d9190611b7f565b610d379190611bf0565b9150610d4d6790d47fbe5d4ee92860c01b611431565b610d6167d27416bc9bda689860c01b611431565b60006007805490501115610d9d57610d8367c1f727ee97bc81b760c01b611431565b610d97676243669b645bebb460c01b611431565b50610db3565b610db1676bdcea004b19c55960c01b611431565b505b9091565b60035481565b6000610dd36773e7c96b9d93bff360c01b611431565b610de767505e1133060c8d8560c01b611431565b610dfb67b33423556d18767e60c01b611431565b610e0f67be46b62fba13581b60c01b611431565b600560003373ffffffffffffffffffffffffffffffffffffffff1673ffffffffffffffffffffffffffffffffffffffff16815260200190815260200160002060009054906101000a900460ff16610e9b576040517f08c379a0000000000000000000000000000000000000000000000000000000008152600401610e9290611c6d565b60405180910390fd5b610eaf673a2dfb581d8365a860c01b611431565b610ec367dadb42fba5c156a160c01b611431565b610ed767208b8342667121d060c01b611431565b600660003373ffffffffffffffffffffffffffffffffffffffff1673ffffffffffffffffffffffffffffffffffffffff16815260200190815260200160002060009054906101000a900460ff16905090565b60008060009054906101000a900473ffffffffffffffffffffffffffffffffffffffff16905090565b6060610f6867199c3845d49d891360c01b611431565b610f7c67e0eb9c46ce5126f760c01b611431565b610f9067f4e5c5cba92fbefe60c01b611431565b610fa4671f312c3ad014ac1260c01b611431565b610fb867abc817afa7e318c060c01b611431565b600454421015610ffd576040517f08c379a0000000000000000000000000000000000000000000000000000000008152600401610ff490611a90565b60405180910390fd5b611011677a227a03f8c5c0a660c01b611431565b61102567a1283306be5cfb9760c01b611431565b61103967e224ca763f44403660c01b611431565b61104d678725b2cbf813714e60c01b611431565b61106167581d902e32f2246160c01b611431565b61107567d88e450f4836e75560c01b611431565b60025460015411156110fa57611095677fa8b4d17c81c95860c01b611431565b6110a96734e0631c4395ad7860c01b611431565b6110bd674552e3ad92b5ef8e60c01b611431565b6040518060400160405280601381526020017f59657320766f746573206861766520776f6e2e00000000000000000000000000815250905061121c565b61110e673a1d5c05d83ed0eb60c01b611431565b61112267771ba9dd88f6317160c01b611431565b60015460025411156111a757611142673033e387f50ebc0960c01b611431565b61115667ad3dceb9ddb6883b60c01b611431565b61116a675ce51bfdcdfba37760c01b611431565b6040518060400160405280601281526020017f4e6f20766f746573206861766520776f6e2e0000000000000000000000000000815250905061121c565b6111bb6704a43b3f5b1af54560c01b611431565b6111cf67fc5325a0caf18a4f60c01b611431565b6111e367a728d12db9db54d460c01b611431565b6040518060400160405280601081526020017f566f7465732061726520657175616c2e0000000000000000000000000000000081525090505b90565b61123367ca67a1dec2fb6e3260c01b611431565b61123b611434565b61124f67f54c92aeb219afff60c01b611431565b61126367fd5d631768cc64b660c01b611431565b611277671723525dd880f48960c01b611431565b42600481905550565b600061129667425ba4b60b2fa1fe60c01b611431565b6112aa676188a03ee3a0646560c01b611431565b6112be67c7c05e63236e1eaf60c01b611431565b600154905090565b60006112dc675eec5614bda0325d60c01b611431565b6112f0677193f1416e9ad7a060c01b611431565b611304671a4213dca6e570e860c01b611431565b600560008373ffffffffffffffffffffffffffffffffffffffff1673ffffffffffffffffffffffffffffffffffffffff16815260200190815260200160002060009054906101000a900460ff169050919050565b600061136e674546b90474163b7260c01b611431565b61138267cd8a19c776132ba160c01b611431565b61139667a07ed93bf061fec560c01b611431565b6002546001546113a69190611b4b565b905090565b6113b3611434565b600073ffffffffffffffffffffffffffffffffffffffff168173ffffffffffffffffffffffffffffffffffffffff16036114255760006040517f1e4fbdf700000000000000000000000000000000000000000000000000000000815260040161141c9190611763565b60405180910390fd5b61142e816114bb565b50565b50565b61143c61157f565b73ffffffffffffffffffffffffffffffffffffffff1661145a610f29565b73ffffffffffffffffffffffffffffffffffffffff16146114b95761147d61157f565b6040517f118cdaa70000000000000000000000000000000000000000000000000000000081526004016114b09190611763565b60405180910390fd5b565b60008060009054906101000a900473ffffffffffffffffffffffffffffffffffffffff169050816000806101000a81548173ffffffffffffffffffffffffffffffffffffffff021916908373ffffffffffffffffffffffffffffffffffffffff1602179055508173ffffffffffffffffffffffffffffffffffffffff168173ffffffffffffffffffffffffffffffffffffffff167f8be0079c531659141344cd1fd0a4f28419497f9722a3daafe3b4186f6b6457e060405160405180910390a35050565b600033905090565b50805460008255906000526020600020908101906115a591906115a8565b50565b5b808211156115c15760008160009055506001016115a9565b5090565b6000819050919050565b6115d8816115c5565b82525050565b60006020820190506115f360008301846115cf565b92915050565b600080fd5b60008115159050919050565b611613816115fe565b811461161e57600080fd5b50565b6000813590506116308161160a565b92915050565b60006020828403121561164c5761164b6115f9565b5b600061165a84828501611621565b91505092915050565b61166c816115c5565b811461167757600080fd5b50565b60008135905061168981611663565b92915050565b600080604083850312156116a6576116a56115f9565b5b60006116b48582860161167a565b92505060206116c58582860161167a565b9150509250929050565b60006040820190506116e460008301856115cf565b6116f160208301846115cf565b9392505050565b611701816115fe565b82525050565b600060208201905061171c60008301846116f8565b92915050565b600073ffffffffffffffffffffffffffffffffffffffff82169050919050565b600061174d82611722565b9050919050565b61175d81611742565b82525050565b60006020820190506117786000830184611754565b92915050565b600081519050919050565b600082825260208201905092915050565b60005b838110156117b857808201518184015260208101905061179d565b60008484015250505050565b6000601f19601f8301169050919050565b60006117e08261177e565b6117ea8185611789565b93506117fa81856020860161179a565b611803816117c4565b840191505092915050565b6000602082019050818103600083015261182881846117d5565b905092915050565b61183981611742565b811461184457600080fd5b50565b60008135905061185681611830565b92915050565b600060208284031215611872576118716115f9565b5b600061188084828501611847565b91505092915050565b7f566f74696e67206e6f7420737461727465642e00000000000000000000000000600082015250565b60006118bf601383611789565b91506118ca82611889565b602082019050919050565b600060208201905081810360008301526118ee816118b2565b9050919050565b7f566f74696e6720656e6465642e00000000000000000000000000000000000000600082015250565b600061192b600d83611789565b9150611936826118f5565b602082019050919050565b6000602082019050818103600083015261195a8161191e565b9050919050565b7f416c726561647920766f7465642e000000000000000000000000000000000000600082015250565b6000611997600e83611789565b91506119a282611961565b602082019050919050565b600060208201905081810360008301526119c68161198a565b9050919050565b7f4e487b7100000000000000000000000000000000000000000000000000000000600052601160045260246000fd5b6000611a07826115c5565b91507fffffffffffffffffffffffffffffffffffffffffffffffffffffffffffffffff8203611a3957611a386119cd565b5b600182019050919050565b7f566f74696e67206973206f6e676f696e672e0000000000000000000000000000600082015250565b6000611a7a601283611789565b9150611a8582611a44565b602082019050919050565b60006020820190508181036000830152611aa981611a6d565b9050919050565b7f4475726174696f6e206d75737420626520706f73697469766500000000000000600082015250565b6000611ae6601983611789565b9150611af182611ab0565b602082019050919050565b60006020820190508181036000830152611b1581611ad9565b9050919050565b7f4e487b7100000000000000000000000000000000000000000000000000000000600052603260045260246000fd5b6000611b56826115c5565b9150611b61836115c5565b9250828201905080821115611b7957611b786119cd565b5b92915050565b6000611b8a826115c5565b9150611b95836115c5565b9250828202611ba3816115c5565b91508282048414831517611bba57611bb96119cd565b5b5092915050565b7f4e487b7100000000000000000000000000000000000000000000000000000000600052601260045260246000fd5b6000611bfb826115c5565b9150611c06836115c5565b925082611c1657611c15611bc1565b5b828204905092915050565b7f596f752068617665206e6f7420766f746564207965742e000000000000000000600082015250565b6000611c57601783611789565b9150611c6282611c21565b602082019050919050565b60006020820190508181036000830152611c8681611c4a565b905091905056fea26469706673582212204b1df23a3dddb1225105cab8000f825c24d0410907d437c368b0a262608d109a64736f6c634300081c0033",
  "linkReferences": {},
  "deployedLinkReferences": {}
}